:100000000C9483000C94A4000C94A4000C94A40001
:100010000C94A4000C94A4000C94A4000C94A400D0
:100020000C94A4000C94A4000C94A4000C945B0DFC
:100030000C94A4000C94A4000C94A4000C94A400B0
:100040000C94060C0C94A4000C94B9160C94A40007
:100050000C94A4000C94A4000C94A4000C942D08FF
:100060000C94A4000C945A080C94A4000C94A400C2
:100070000C94A40012011001FFFFFF4023F102A025
:1000800001010102030109021200010100801909A6
:1000900004000000FFFFFF000403090444035400B0
:1000A00068006F006D006100730020004D0061006A
:1000B00069006500720020003C00620061006C0075
:1000C00061006700690040006A00750073007400F9
:1000D0006D00610069006C002E00640065003E0048
:1000E00000001803730062006F0078006E00650066
:1000F00074003200750073006200000098009C00DC
:10010000E2000810204011241FBECFEFD4E0DEBF74
:10011000CDBF23E0A0E0B1E001C01D92A634B2073C
:10012000E1F706E413E007C0C8018C010F5F1F4F21
:1001300025EAFC012083F4E00F3F1F07A8F300002D
:100140000E9494170C9414180C940000CF93DF9322
:1001500000D000D0CDB7DEB78B836C838B819C81C0
:10016000892728E09CE8869508F489272A95D9F7FD
:100170008B8329839A838B810F900F900F900F9020
:10018000DF91CF910895CF93DF93CDB7DEB7F89489
:1001900081E0DF91CF910895CF93DF9300D0CDB769
:1001A000DEB79A8389838FE590E029813A81F9014E
:1001B0002081FC01208300000F900F90DF91CF91F0
:1001C0000895CF93DF931F92CDB7DEB789838981DE
:1001D000882F90E0880F991F982F8981892789831C
:1001E000898186959981892789838981880F880FDC
:1001F000982F89818927898389810F90DF91CF91F9
:100200000895CF93DF93CDB7DEB780912903909106
:100210002A03019690932A03809329030000DF911B
:10022000CF910895CF93DF93CDB7DEB780912F03A1
:100230009091300301969093300380932F03000038
:10024000DF91CF910895CF93DF93CDB7DEB7809143
:100250001303909114030196909314038093130356
:100260000000DF91CF910895CF93DF93CDB7DEB734
:100270008FEFDF91CF910895CF93DF9300D0CDB76B
:10028000DEB789836A836A8189810E94A6000F9004
:100290000F90DF91CF910895CF93DF931F92CDB749
:1002A000DEB7898381E09981992309F080E00F907E
:1002B000DF91CF910895CF93DF93CDB7DEB78091D3
:1002C0000E010E94E10080930E0180910E01DF91EA
:1002D000CF910895CF93DF9300D01F92CDB7DEB7B3
:1002E0009A8389836B8389819A81FC011082898139
:1002F0009A81FC01118289819A81FC011282898193
:100300009A81FC01138289819A81FC01148289817E
:100310009A81FC01158289819A81FC01168289816A
:100320009A812B81FC01278300000F900F900F9082
:10033000DF91CF910895CF93DF9300D0CDB7DEB793
:100340009A83898389819A81FC0186810F900F901D
:10035000DF91CF910895CF93DF9300D0CDB7DEB773
:100360009A83898389819A81FC01278189819A8175
:10037000FC018681281B89819A81FC018481F22FEE
:10038000F81B8F2F0F900F90DF91CF910895CF938F
:10039000DF9300D0CDB7DEB79A83898389819A81B4
:1003A000FC018681282F30E089819A81FC018481BB
:1003B000882F90E0280F391F89819A81FC0187815D
:1003C000882F90E0821793072CF4809107018460B6
:1003D0008093070189819A81FC01268189819A8114
:1003E000FC018481280F89819A81FC0126838981FF
:1003F0009A81FC01148289819A81FC01238189817F
:100400009A81FC01258300000F900F90DF91CF911E
:100410000895CF93DF9300D0CDB7DEB79A83898359
:1004200089819A81FC01148289819A81FC0125814C
:1004300089819A81FC01238300000F900F90DF9146
:10044000CF910895CF93DF9300D000D0CDB7DEB722
:100450009B838A836C8319828A819B81FC0126811C
:100460008A819B81FC018481280F8A819B81FC0108
:100470008781281798F58A819B81FC01848121E07E
:10048000280F8A819B81FC0124838A819B81FC0146
:100490008381882F90E02A813B81820F931F0896E9
:1004A0002C81FC0120838A819B81FC01838121E0D6
:1004B000280F8A819B81FC0123838A819B81FC0117
:1004C00023818A819B81FC018781281720F08A8102
:1004D0009B81FC01138281E0898306C08091070122
:1004E000846080930701198289810F900F900F908B
:1004F0000F90DF91CF910895CF93DF9300D01F929B
:10050000CDB7DEB79A8389836B8389819A81FC0199
:100510008581882F90E029813A81820F931F089668
:100520002B81FC01208300000F900F900F90DF9132
:10053000CF910895CF93DF9300D0CDB7DEB79A83E4
:10054000898389819A81FC0184810F900F90DF91CA
:10055000CF910895CF93DF9300D0CDB7DEB79A83C4
:10056000898389819A81FC01268189819A81FC0194
:100570008181281728F48091070182608093070108
:1005800089819A81FC01268189819A81FC0181817E
:10059000281B89819A81FC01268389819A81FC012B
:1005A000118289819A81FC01208189819A81FC01D3
:1005B000228300000F900F90DF91CF910895CF9389
:1005C000DF9300D0CDB7DEB79A83898389819A8182
:1005D000FC01118289819A81FC01228189819A81A1
:1005E000FC01208300000F900F90DF91CF910895C0
:1005F000CF93DF9300D01F92CDB7DEB79B838A8362
:1006000019828A819B81FC0126818A819B81FC0160
:100610008181821788F58A819B81FC01818121E09B
:10062000280F8A819B81FC0121838A819B81FC01A7
:100630008081882F90E02A813B81820F931F08964A
:10064000FC01808189838A819B81FC01808121E07A
:10065000280F8A819B81FC0120838A819B81FC0178
:1006600020818A819B81FC018781281750F08A8133
:100670009B81FC01108205C08091070182608093FC
:10068000070189810F900F900F90DF91CF9108950E
:10069000CF93DF9300D01F92CDB7DEB79B838A83C1
:1006A00019828A819B81FC0126818A819B81FC01C0
:1006B0008181821778F48A819B81FC018081882F57
:1006C00090E02A813B81820F931F0896FC01808174
:1006D000898305C080910701826080930701898129
:1006E0000F900F900F90DF91CF910895CF93DF93EC
:1006F00000D0CDB7DEB79A83898389819A81FC01C6
:10070000268189819A81FC018181F22FF81B8F2F2C
:100710000F900F90DF91CF910895CF93DF93CDB7D6
:10072000DEB788EC90E028EC30E0F9012081216010
:10073000FC01208389EC90E029EC30E0F901208174
:100740002069FC0120830000DF91CF910895CF93B1
:10075000DF9300D0CDB7DEB786E091E09A8389833E
:1007600089819A8143E352E060E070E00E94C717FC
:1007700089819A81FC01108286E690E0FC0120814B
:1007800089819A81FC01208789819A8129E1FC0174
:10079000228389819A8109966AEF0E946A01898180
:1007A0009A81855F9E4F6AEF0E946A018AE290E01B
:1007B0002AE230E0F90120812B7FFC0120838BE2CB
:1007C00090E02BE230E0F90120812460FC012083DD
:1007D0008BE290E02BE230E0F90120812860FC01FF
:1007E00020838AE290E02AE230E0F901208128604B
:1007F000FC0120838DE390E02DE330E0F9012081BE
:100800002B7FFC01208389E690E029E630E0F901A6
:1008100020812F7DFC01208389E690E029E630E0ED
:10082000F90120812061FC0120838CE390E024E029
:10083000FC0120838DEC90E0FC0110828CEC90E0B8
:1008400023E0FC01208388EC90E020E4FC0120837D
:100850008AEC90E026E2FC01208389EC90E024E021
:10086000FC0120830E948D0300000F900F90DF9108
:10087000CF910895CF93DF9300D0CDB7DEB78FE54A
:1008800090E0FC0180818A830E94C30089832CC090
:100890001092060189EC90E024E0FC0120838AE2BA
:1008A00090E02AE230E0F90120812B7FFC012083D7
:1008B0008AE290E02AE230E0F9012081277FFC0102
:1008C00020838BE290E02BE230E0F9012081286068
:1008D000FC0120838DE390E02DE330E0F9012081DD
:1008E0002B7FFC01208319828981882389F6CE0120
:1008F00002960E94CC0000000F900F90DF91CF91E4
:1009000008950F931F93CF93DF9300D0CDB7DEB739
:100910009A83898384E890E0FC01008111818AE850
:1009200090E029813A81200F311FFC01318320831F
:1009300086E390E024E0FC0120838FE690E02FE640
:1009400030E0F90120812460FC01208300000F9039
:100950000F90DF91CF911F910F910895CF93DF9367
:10096000CDB7DEB78CE390E024E0FC0120830000EB
:10097000DF91CF910895CF93DF93CDB7DEB78CE3AE
:1009800090E0FC0180818470DF91CF910895CF9336
:10099000DF9300D0CDB7DEB79A8389830E94AE047F
:1009A00081E08093060189819A8188589F4F0E9437
:1009B000810400000F900F90DF91CF910895CF93A5
:1009C000DF9300D000D000D0CDB7DEB786E091E055
:1009D0009A83898389819A819A83898388EC90E0BC
:1009E000FC0180818B8389EC90E0FC018081827026
:1009F0008C838EEC90E0FC0180818D838B818C71E7
:100A00008B838B818823E9F10E9401018B81882FE0
:100A100090E080719927892B89F089819A818B5D7B
:100A20009D4FFC01808191819C012F5F3F4F898107
:100A30009A818B5D9D4FFC01318320838B81882FB0
:100A400090E088709927892B11F00E9412018B8108
:100A5000882F90E084709927892B09F4DFC0898161
:100A60009A81895D9D4FFC01808191819C012F5F5E
:100A70003F4F89819A81895D9D4FFC01318320839D
:100A8000CDC08C81882309F458C089819A81099648
:100A90000E949A028823C1F089819A81855D9D4FC9
:100AA000FC01808191819C012F5F3F4F89819A8158
:100AB000855D9D4FFC01318320830E940101898166
:100AC0009A8109960E940902809105019D819817DB
:100AD00079F08D818F3F61F089819A810196FC01C7
:100AE0008081882F90E081709927892B09F497C025
:100AF00088EC90E028EC30E0F90120812E7FFC01A9
:100B0000208389819A81099660E00E9422028823CD
:100B100081F089819A8109966D810E942202882341
:100B200049F00E94230189819A8126E0FC012783F4
:100B300089C000000E9412016EC089819A810996C5
:100B40000E949A028E8389819A81FC0197818E810D
:100B5000981790F489819A81835D9D4FFC01808173
:100B600091819C012F5F3F4F89819A81835D9D4FC9
:100B7000FC01318320834FC08E81843041F48D810C
:100B80008F7326E0280F89819A81FC012783898150
:100B90009A8109966D810E942202882319F40E948D
:100BA000120139C00E94230189819A8109960E940D
:100BB0009A02282F30E089819A81FC018781882F51
:100BC00090E0019628173907E9F589819A81FC019F
:100BD000278189819A810996622F0E947C028981EE
:100BE0009A81FC01178288EC90E028EC30E0F90152
:100BF00020812160FC01208389819A8109960E94CD
:100C0000C7018091150390911603019690931603E6
:100C10008093150317C00E94010101C00000898163
:100C20009A81FC01178288EC90E028EC30E0F90111
:100C300020812160FC01208389819A8109960E948C
:100C4000090201C0000026960FB6F894DEBF0FBE61
:100C5000CDBFDF91CF910895CF93DF9300D000D027
:100C6000CDB7DEB786E091E09A83898389819A8146
:100C70009A83898389819A81FC0184818823B9F4CC
:100C800089819A81855F9E4F0E949B01873078F011
:100C900089819A81FC01138289819A81855F9E4FA7
:100CA0000E94F802282F89819A81FC01248389817E
:100CB0009A81FC018481882321F189819A81FC0138
:100CC00083818823F1F489819A81FC0180818823C2
:100CD000C1F40E945B01882F90E08F7399279C8359
:100CE0008B8389819A81FC018281882F90E008960C
:100CF0009C01220F331F8B819C81820F931F0E94C6
:100D0000C70400000F900F900F900F90DF91CF91CC
:100D10000895CF93DF93CDB7DEB727970FB6F8943A
:100D2000DEBF0FBECDBF86E091E09A8389838981C3
:100D30009A819A83898388EC90E0FC0180818B837F
:100D40008B818095881F8827881F8C838B81847175
:100D50008D838EEC90E0FC01208189819A81FC01D9
:100D6000958181E0291709F480E08E838C818823A6
:100D700039F48D81882321F48E81882309F4DFC022
:100D80008C81882389F089819A81855E9D4FFC0141
:100D9000808191819C012F5F3F4F89819A81855E7F
:100DA0009D4FFC01318320838D81882389F08981C7
:100DB0009A81835E9D4FFC01808191819C012F5F10
:100DC0003F4F89819A81835E9D4FFC01318320834F
:100DD0008E81882389F089819A81815E9D4FFC01F3
:100DE000808191819C012F5F3F4F89819A81815E33
:100DF0009D4FFC01318320838BE290E02BE230E0B9
:100E0000F9012081277FFC01208389EC90E029EC07
:100E100030E0F9012081277AFC01208389819A81C1
:100E200022E0FC01208389819A81875E9D4FFC012D
:100E3000808191819C012F5F3F4F89819A81875EDC
:100E40009D4FFC013183208389819A81FC0182813D
:100E5000882391F189819A81FC0182812FEF280FEB
:100E600089819A81FC01228389819A81855F9E4FC5
:100E70000E94DF0289819A818F5D9D4FFC018081F4
:100E800091819C012F5F3F4F89819A818F5D9D4F9A
:100E9000FC013183208342C089819A81855F9E4F06
:100EA0000E94F80289819A81FC01838121E0280F48
:100EB00089819A81FC01238389819A81FC012381A4
:100EC00089819A81FC018481281730F389819A8174
:100ED000FC01148289819A81FC01248189819A8193
:100EE000FC01238389819A8129E1FC012283898184
:100EF0009A81855F9E4F0E94AA0289819A818F5CA8
:100F00009D4FFC01808191819C012F5F3F4F898122
:100F10009A818F5C9D4FFC013183208389819A8166
:100F2000FC01148289819A81FC01248189819A8142
:100F3000FC01238380E890E00E94810485C089EC55
:100F400090E029EC30E0F90120812F76FC0120832C
:100F500089EC90E029EC30E0F90120812061FC016E
:100F6000208389819A81FC01238189819A81FC01F6
:100F70008481281728F589819A81855F9E4F0E9478
:100F8000F8028F8389819A81FC01838121E0280FF7
:100F900089819A81FC01238389819A812F81FC01B7
:100FA000258389EC90E029EC30E0F90120812E7F47
:100FB000FC0120838EEC90E02F81FC01208333C064
:100FC00089EC90E029EC30E0F90120812F7BFC01D5
:100FD000208389819A81FC01148289819A81FC0194
:100FE000138289819A81855F9E4F0E94AA02809117
:100FF0001D0390911E03019690931E0380931D0381
:101000000E948D0389819A81FC018081833021F4C3
:1010100089819A81FC01108289819A8129E1FC01F0
:1010200022830E942C0689819A818D5E9D4FFC014E
:10103000808191819C012F5F3F4F89819A818D5ED4
:101040009D4FFC013183208327960FB6F894DEBFB5
:101050000FBECDBFDF91CF9108951F920F920090E8
:101060005F000F9211242F933F934F935F936F93E1
:101070007F938F939F93AF93BF93EF93FF93CF9300
:10108000DF93CDB7DEB70E94DF040000DF91CF9180
:10109000FF91EF91BF91AF919F918F917F916F9150
:1010A0005F914F913F912F910F9000925F000F90B1
:1010B0001F9018951F920F9200905F000F921124BD
:1010C0002F933F934F935F936F937F938F939F9350
:1010D000AF93BF93EF93FF93CF93DF93CDB7DEB77B
:1010E0000E9489060000DF91CF91FF91EF91BF919F
:1010F000AF919F918F917F916F915F914F913F91B0
:101100002F910F9000925F000F901F901895CF9332
:10111000DF9300D000D01F92CDB7DEB786E091E01C
:101120009A8389838FE690E02FE630E0F9012081F1
:101130002B7FFC01208389819A81FC018081813091
:1011400009F08FC089819A81FC018481882309F488
:1011500082C089819A81FC018381882309F07BC048
:1011600089819A81855F9E4F0E9448038B838BE221
:1011700090E02BE230E0F90120812860FC0120831F
:1011800089EC90E029EC30E0F90120812960FC0134
:1011900020830E94BB04882351F489E290E0FC0183
:1011A0008081882F90E084709927892BC9F40E9450
:1011B0005B01882F90E08F7399279D838C838981B1
:1011C0009A81FC018281882F90E09C01220F331FBD
:1011D0008C819D81820F931F0E94C704000040C034
:1011E00089EC90E029EC30E0F90120812F76FC01B8
:1011F000208389EC90E029EC30E0F9012081206522
:10120000FC0120838EEC90E02B81FC01208388EC94
:1012100090E028EC30E0F90120812E7FFC01208352
:1012200089819A81855F9E4F0E94F80289819A8107
:101230002B81FC01258389819A81FC01838121E036
:10124000280F89819A81FC01238389819A8123E077
:10125000FC01208305C089819A81FC01108240C075
:101260003FC089819A81FC0180818230A9F48BE2A0
:1012700090E02BE230E0F90120812860FC0120831E
:1012800089819A8124E0FC01208380E290E00E9421
:1012900081040E94AE0424C089819A81FC0180816E
:1012A0008430F1F40E94BB04882399F489E290E031
:1012B000FC018081882F90E084709927892B49F068
:1012C0000E948D0389819A81FC0110820E942C0664
:1012D00006C00E94AE0480E290E00E9481040000FB
:1012E0000F900F900F900F900F90DF91CF91089576
:1012F000CF93DF93CDB7DEB765970FB6F894DEBF17
:101300000FBECDBF9C8B8B8B6D8B8D89863010F47F
:101310008DEFCCC086E091E09E878D87198286E0B4
:101320008A838FE590E0FC0180818F870E94C30053
:101330008C8310C08D859E8509960E9476038B83D1
:101340008B81873030F08D859E8509960E944803F9
:1013500089831C828C81882369F7CE010F960E94B5
:10136000CC0099818A81981710F48FEF9FC08981F2
:10137000882F90E09C012F5F3F4F8B81882F90E05A
:101380008217930714F48FEF91C099818D89891783
:1013900010F48DEF8BC08981863410F08CEF86C0FD
:1013A0008FE590E0FC018081888B0E94C3008D83D3
:1013B00006C08D859E8509960E94F8021D828D814A
:1013C0008823B9F7CE0140960E94CC008B899C8976
:1013D0009F838E830E9434018887198631C08FE5F0
:1013E00090E0FC018081898B0E94C3008B8707C03D
:1013F0008D859E8509960E94F8028A871B868B85BB
:101400008823B1F7CE0141960E94CC0089858330B4
:1014100029F48A858F739A81890F8A836A858885E2
:101420000E943C0188878E819F819C012F5F3F4FE6
:101430003F832E832A85FC01208389858F5F8987DE
:1014400099858981981758F28FE590E0FC01808199
:101450008A8B0E94C3008C8706C08D859E85099665
:101460000E94AA021C868C858823B9F7CE01429679
:101470000E94CC0088850E944C01882369F40E9458
:1014800001018091350390913603019690933603C4
:10149000809335038EEF0AC0809117039091180353
:1014A00001969093180380931703898165960FB670
:1014B000F894DEBF0FBECDBFDF91CF910895CF93DB
:1014C000DF93CDB7DEB766970FB6F894DEBF0FBED9
:1014D000CDBF9E8B8D8B86E091E09D878C878D891B
:1014E0009E89FC0183818F738A5F8E878FE590E0F0
:1014F000FC0180818F870E94C3008A8308C08C858D
:101500009D85855F9E4F0E94AB0189831A828A81E7
:101510008823A9F7CE010F960E94CC0099818E8571
:10152000891710F081E0BDC08FE590E0FC0180815B
:10153000888B0E94C3008C8309C08C859D85855F44
:101540009E4F6E850E9422028B831C828C81882391
:10155000A1F7CE0140960E94CC008B81882309F42C
:1015600061C00E9434018D831E8235C08E8181301E
:1015700021F4809105018F830AC08E81882F90E02D
:101580002D893E89820F931FFC0180818F836F819B
:101590008D810E943C018D838FE590E0FC0180816C
:1015A000898B0E94C300888709C08C859D85855FD3
:1015B0009E4F6F810E9422028B8318868885882324
:1015C000A1F7CE0141960E94CC008B81882361F166
:1015D0008E818F5F8E838E81282F30E08E85882FBD
:1015E00090E00197281739070CF28FE590E0FC0195
:1015F00080818A8B0E94C300898709C08C859D8564
:10160000855F9E4F6D810E9422028B83198689859A
:101610008823A1F7CE0142960E94CC008B818823BB
:10162000E9F403C0000001C000008FE590E0FC0178
:1016300080818B8B0E94C3008A8707C08C859D8523
:10164000855F9E4F0E9409021A868A858823B1F71A
:10165000CE0143960E94CC0081E023C08FE590E04C
:10166000FC0180818C8B0E94C3008B8709C08C8514
:101670009D85855F9E4F0E94C7010E942C061B8698
:101680008B858823A1F7CE0144960E94CC008091DF
:101690001B0390911C03019690931C0380931B03E2
:1016A00080E066960FB6F894DEBF0FBECDBFDF9127
:1016B000CF910895CF93DF9300D000D000D0CDB765
:1016C000DEB79E838D838D819E81FC0183818F7324
:1016D0008A5F8B838FE590E0FC0180818C830E9480
:1016E000C3008A8306C081E192E00E94AB01898336
:1016F0001A828A818823B9F7CE0104960E94CC0011
:1017000081E029819B81921708F080E026960FB630
:10171000F894DEBF0FBECDBFDF91CF910895CF9378
:10172000DF93CDB7DEB781E192E00E949B01982F55
:1017300081E0992309F080E0DF91CF910895CF9364
:10174000DF9300D01F92CDB7DEB78FE590E0FC01AC
:1017500080818B830E94C3008A8306C08FE091E062
:101760000E94760389831A828A818823B9F7CE0181
:1017700003960E94CC0081E09981963008F480E0C5
:101780000F900F900F90DF91CF910895CF93DF933B
:1017900000D01F92CDB7DEB78FE590E0FC018081CD
:1017A0008B830E94C3008A8306C081E192E00E947D
:1017B000AB0189831A828A818823B9F7CE01039607
:1017C0000E94CC0081E09981973008F480E00F906E
:1017D0000F900F90DF91CF910895CF93DF931F92D9
:1017E000CDB7DEB789838981882331F080910701E5
:1017F00081608093070105C0809107018E7F8093EF
:10180000070100000F90DF91CF9108951F920F9272
:1018100000905F000F9211242F933F934F935F939B
:101820006F937F938F939F93AF93BF93EF93FF93A8
:10183000CF93DF93CDB7DEB70E9487080000DF911A
:10184000CF91FF91EF91BF91AF919F918F917F9138
:101850006F915F914F913F912F910F9000925F0098
:101860000F901F901895CF93DF9300D0CDB7DEB7C0
:101870008FE590E0FC0180818A830E94C300898308
:101880000DC083E08093030185E290E025E230E023
:10189000F90120812064FC01208319828981882339
:1018A00081F7CE0102960E94CC0000000F900F90AD
:1018B000DF91CF910895CF93DF9300D0CDB7DEB7FE
:1018C0008FE590E0FC0180818A830E94C3008983B8
:1018D0000DC083E08093040185E290E025E230E0D2
:1018E000F90120812068FC012083198289818823E5
:1018F00081F7CE0102960E94CC0000000F900F905D
:10190000DF91CF910895CF93DF9300D0CDB7DEB7AD
:1019100086E493E09A8389830BC089819A81FC01D4
:101920008081853A59F489819A8101969A838983C5
:1019300089819A818F5F944080F301C000002981E2
:101940003A8186E493E0A901481B590BCA010F9024
:101950000F90DF91CF910895CF93DF93CDB7DEB78E
:101960002FEF34E086E493E0A901481B590BCA012C
:10197000DF91CF910895CF93DF93CDB7DEB788EE97
:1019800090E0FC0180818870DF91CF910895CF9322
:10199000DF93CDB7DEB788EE90E028EE30E0F901B6
:1019A0002081277FFC0120830000DF91CF910895E3
:1019B000CF93DF93CDB7DEB788EE90E0FC01808156
:1019C0008170DF91CF910895CF93DF93CDB7DEB7CC
:1019D00088EE90E028EE30E0F90120812E7FFC01B6
:1019E00020830000DF91CF910895CF93DF93CDB78F
:1019F000DEB788EE90E028EE30E0F90120812F7705
:101A0000FC0120830000DF91CF910895CF93DF93F5
:101A1000CDB7DEB788EE90E0FC0180818470DF9165
:101A2000CF910895CF93DF93CDB7DEB788EE90E0E6
:101A300028EE30E0F90120812B7FFC01208300009B
:101A4000DF91CF910895CF93DF93CDB7DEB78BEEC3
:101A500090E02BEE30E0F90120812062FC01208330
:101A60000000DF91CF910895CF93DF9300D0CDB7E1
:101A7000DEB79A83898389819A81FC018081809570
:101A8000881F8827881F0F900F90DF91CF910895AE
:101A9000CF93DF9300D0CDB7DEB79A838983898156
:101AA0009A81FC018081881F8827881F0F900F90E2
:101AB000DF91CF9108951F920F9200905F000F92D7
:101AC00011242F933F934F935F936F937F938F9343
:101AD0009F93AF93BF93EF93FF93CF93DF9300D088
:101AE0001F92CDB7DEB781EE90E0FC0180818A8342
:101AF00082EE90E0FC0180818B8389EE90E0FC0116
:101B000080818983CE010296FC018081CE010296FC
:101B1000FC018081CE010296FC018081CE010296FB
:101B2000FC018081882F90E088709927892BA9F08B
:101B3000CE010396FC018081882F90E08870992760
:101B4000892B11F00E94611381EE90E021EE30E0CC
:101B5000F9012081277FFC012083CE010296FC0140
:101B60008081CE010296FC01808181EE90E0FC0133
:101B7000108289EE90E02981FC01208300000F9003
:101B80000F900F90DF91CF91FF91EF91BF91AF91A7
:101B90009F918F917F916F915F914F913F912F9185
:101BA0000F9000925F000F901F901895CF93DF93D6
:101BB00000D01F92CDB7DEB79A8389836B8310C0A4
:101BC00089819A819C012F5F3F4F3A83298321EFBE
:101BD00030E0F9012081FC0120838B8181508B83CF
:101BE0008B81882369F700000F900F900F90DF9191
:101BF000CF910895CF93DF93CDB7DEB70AC0809120
:101C00003903882F90E08C719927892B11F483E098
:101C100005C00E94D80C882391F380E0DF91CF911A
:101C20000895CF93DF931F92CDB7DEB70E94FA0DD0
:101C300089838981882329F40E94E40C0E94FA0D8B
:101C4000898389810F90DF91CF910895CF93DF939E
:101C500000D000D000D0CDB7DEB79D838C836E83DB
:101C60008E81882F90E08130910519F0029761F004
:101C700010C08C819D819A83898389819A81FC011E
:101C800084918B838B8109C08C819D810E94CE17AA
:101C900004C08C819D81FC01808126960FB6F8944A
:101CA000DEBF0FBECDBFDF91CF910895CF93DF93FD
:101CB00000D01F92CDB7DEB78DEE90E0FC018081A1
:101CC00082958F70882F90E0837099278E5F9E4F4A
:101CD0009A83898389819A81FC0184918B838B818A
:101CE0000F900F900F90DF91CF910895CF93DF93D6
:101CF00000D000D000D0CDB7DEB79B838A837D8330
:101D00006C834E8380913903882F90E08C719927E2
:101D1000892B11F483E043C00E94BB0C882311F08F
:101D200081E03DC00E94060D882321F00E94120D23
:101D300082E035C00E94D80C882369F115C08A81E1
:101D40009B819C012F5F3F4F3B832A836E810E94C2
:101D5000260E898381EF90E02981FC0120838C810C
:101D60009D8101979D838C838C819D81892B51F06E
:101D700088EE90E0FC018081882F90E080729927A6
:101D8000892BE9F60E94E40C0E94F50C8C819D8160
:101D9000892B19F0B7CF0000B5CF000080E0269660
:101DA0000FB6F894DEBF0FBECDBFDF91CF9108957F
:101DB0000F931F93CF93DF93CDB7DEB727970FB65F
:101DC000F894DEBF0FBECDBF9C838B837E836D8373
:101DD0004F830E94560E8A8380913903882F90E0AA
:101DE0008C719927892B11F483E045C00E94BB0CAC
:101DF000882311F081E03FC00E94060D882321F066
:101E00000E94120D82E037C00E94D80C882379F11D
:101E100082EF90E0FC018081898316C001EF10E021
:101E20008B819C819C012F5F3F4F3C832B836F8173
:101E30000E94260EF80180838D819E8101979E83EA
:101E40008D8389818F5F89838D819E81892B21F08C
:101E500099818A81981710F399818A81981711F4D2
:101E60000E94E40C8D819E81892B19F0B5CF000072
:101E7000B3CF000080E027960FB6F894DEBF0FBE08
:101E8000CDBFDF91CF911F910F910895CF93DF9335
:101E9000CDB7DEB780913903882F90E08C719927F8
:101EA000892B11F483E02EC00E94BB0C882311F013
:101EB00081E028C00E94060D882321F00E94120DA7
:101EC00082E020C00E94D80C882309F4E3CF0E944E
:101ED000E40C000010C080913903882F90E08C71D1
:101EE0009927892B11F483E00DC00E94BB0C882335
:101EF00011F081E007C00E94060D882361F30E9463
:101F0000120D80E0DF91CF910895CF93DF93CDB78D
:101F1000DEB728970FB6F894DEBF0FBECDBF9B8308
:101F20008A837D836C834E8338872F832C813D8108
:101F30008F8198852817390708F4C9012A813B81C8
:101F40004E81BC01C9010E94D80E898389818823F2
:101F500019F40E94460F8983898128960FB6F89458
:101F6000DEBF0FBECDBFDF91CF910895CF93DF933A
:101F7000CDB7DEB728970FB6F894DEBF0FBECDBF42
:101F80009C838B837E836D8358874F831A8219824B
:101F90008D819E81FC01118210828F819885892B11
:101FA00009F44EC080913903882F90E08C719927F5
:101FB000892B11F483E045C00E94BB0C882311F0EB
:101FC00081E03FC00E94060D8823C1F112C08B81C1
:101FD0009C819C012F5F3F4F3C832B8321EF30E09E
:101FE000F9012081FC01208389819A8101969A83DD
:101FF000898382EF90E0FC018081882339F0298178
:102000003A818F8198852817390708F382EF90E08D
:10201000FC018081882311F40E94120D29813A81EC
:102020008F8198852817390708F4BCCF8D819E8150
:1020300029813A81FC013183208302C00000B2CFA4
:1020400080E028960FB6F894DEBF0FBECDBFDF91BB
:10205000CF910895CF93DF93CDB7DEB70E94120DD5
:102060000E94110EDF91CF910895CF93DF93CDB7EA
:10207000DEB727970FB6F894DEBF0FBECDBF9B83A8
:102080008A837D836C835F834E834E815F812C8145
:102090003D818A819B81B9010E94B60F8983898124
:1020A000882319F40E942A108983898127960FB604
:1020B000F894DEBF0FBECDBFDF91CF910895CF93CF
:1020C000DF9300D0CDB7DEB789E393E09A838983AD
:1020D00089819A81FC018081882F90E088719927FD
:1020E000892B71F00E94C70C89819A81019621E0A9
:1020F00030E040E061E070E00E94850F80E001C0C8
:1021000081E00F900F90DF91CF910895FF920F9390
:102110001F93CF93DF93CDB7DEB72C970FB6F8940C
:10212000DEBF0FBECDBF9C878B8789E393E09C8386
:102130008B838B859C85FC0182819381892F9927D4
:1021400082309105E1F083309105E9F1019709F0C2
:10215000CEC00E94C70C8B859C85FC0126813781EF
:102160008B819C81FC0144858B819C81FC01828157
:10217000938162E170E00E94850F80E0B9C08B8599
:102180009C85FC01828193818D838D81882309F058
:10219000ABC00E94C70C8B859C85FC0126813781D2
:1021A0008B819C81FC0144858B819C81FC01868113
:1021B000682F70E08B819C81FC01848195810E9455
:1021C000850F80E095C08B859C85FC018281938181
:1021D0008E838B819C81FC0182859385892B71F094
:1021E0008B819C81FC01228533858B859C856E814A
:1021F000F9010995882311F480E07AC08B819C81D4
:10220000FC0191858E81891708F070C08B819C81BB
:10221000FC018485882F90E08130910519F00297A8
:10222000F1F02EC08B819C81FC01278130858E814D
:10223000882F90E0880F991F820F931F98878F83B4
:102240008F819885FC0125913491CF013A872987A8
:1022500098878F8389859A859A83898323C08B8108
:102260009C81FC01278130858E81882F90E0880F2A
:10227000991F820F931F0E94D6179A83898312C0D9
:102280008B819C81FC01278130858E81882F90E095
:10229000880F991F820F931FFC01808191819A837F
:1022A0008983000089819A81892B01F10E94C70CE2
:1022B0008B859C85FC01068117818B819C81FC01AB
:1022C000F4848B819C81FC01248589819A81622F11
:1022D0000E94260E682F70E089819A8198014F2D07
:1022E0000E94850F80E004C0000001C0000081E072
:1022F0002C960FB6F894DEBF0FBECDBFDF91CF9105
:102300001F910F91FF900895CF93DF9300D000D0DD
:102310001F92CDB7DEB79D838C8389E393E09A83C8
:10232000898389819A81FC018081882F90E08C705B
:102330009927892B49F18C819D81FC0182819381B0
:102340008F778B830E94C70C83EE90E02B81FC017A
:1023500020830E94110E83EE90E023EE30E0F9011D
:1023600020812068FC0120838B81882331F08981C2
:102370009A8128E0FC01208305C089819A8124E0AC
:10238000FC01208380E001C081E00F900F900F904E
:102390000F900F90DF91CF910895CF93DF9300D0EE
:1023A00000D000D0CDB7DEB79E838D8389E393E064
:1023B0009A83898389819A81FC018081882F90E0AA
:1023C00088719927892B09F43EC08D819E81FC017B
:1023D000828193818B838B81882351F489819A81B7
:1023E00028E0FC01208389819A81FC01118225C0AB
:1023F00089819A81FC01248589819A81FC018481EB
:1024000095810596622F0E94260E8C839B818C817C
:10241000981789F489819A8120E1FC0120838981C0
:102420009A812B81FC0121830E94421489EE90E065
:10243000FC01108202C081E007C00E94C70C0E940C
:10244000110E80E001C081E026960FB6F894DEBF41
:102450000FBECDBFDF91CF910895CF93DF93CDB75E
:10246000DEB729970FB6F894DEBF0FBECDBF89EE59
:1024700090E0FC0110820E94BB0C882309F489C003
:10248000CE01029668E00E94D60D81E089838A81A0
:10249000882F90E080769927892B09F067C08B817F
:1024A000882F90E08730910509F44BC08830910562
:1024B000A4F48330910509F446C0843091053CF4BE
:1024C000009709F442C0019709F441C04FC085301C
:1024D000910529F10697D1F049C08A309105C9F1DB
:1024E0008B30910534F48830910549F0099701F15A
:1024F0003DC08B30910579F10C9779F137C08A8115
:10250000803869F50E945F10898329C08A818038EC
:1025100041F5CE0102960E948610898322C08A81ED
:10252000882309F5CE0102960E94841189831BC07D
:102530008A818823D1F4CE0102960E94CD1189832D
:1025400014C0000013C0000011C000000FC0000044
:102550000DC000000BC0000009C0000007C0000053
:1025600005C0000003C0000001C00000898188236D
:1025700029F0CE0102960E946F14898389EE90E0C3
:10258000FC0110828981882321F00E94C70C0E94DF
:10259000230D000029960FB6F894DEBF0FBECDBF05
:1025A000DF91CF910895CF93DF9300D000D000D07A
:1025B000CDB7DEB78B836C834D832E838D81882FBF
:1025C00090E08031910541F08032910541F008970B
:1025D00049F482E0898309C082E1898306C082E2EE
:1025E000898303C082E3898300008C8183708A839E
:1025F00089EE90E02B812770FC0120838BEE90E028
:102600002BEE30E0F90120812160FC0120838CEE6B
:1026100090E02A81222F30E00024369527950794F8
:10262000369527950794322F202D322F2B81221F8C
:102630002227221F232BFC0120838DEE90E02E8188
:10264000222F30E021703327220F331F220F331F38
:10265000322F2981232BFC01208380EF90E0FC01A5
:1026600010820000000026960FB6F894DEBF0FBE61
:10267000CDBFDF91CF910895CF93DF9300D01F920C
:10268000CDB7DEB789E393E09A83898389819A8104
:10269000FC01248589819A81FC01828193810796BE
:1026A000622F0E94260E8B8320E04B8160E080E049
:1026B0000E94D31200000F900F900F90DF91CF91E6
:1026C0000895CF93DF93CDB7DEB70E943C1384E02B
:1026D0008093390310923A030000DF91CF9108955F
:1026E000CF92EF92FF920F93CF93DF93CDB7DEB7E8
:1026F0002D970FB6F894DEBF0FBECDBF9C838B83A2
:102700007E836D834F83398728870A87FC86EB8613
:10271000CD8689E393E09A83898389819A814DE00C
:1027200050E060E070E00E94C71789819A81FC0147
:10273000108289819A81FC01118289819A812B8181
:102740003C81FC013383228389819A812D813E81E2
:10275000FC013583248389819A812F81FC012683A2
:1027600089819A8128853985FC0130872783898171
:102770009A812A85FC01218789819A812B853C8554
:10278000FC013387228789819A812D85FC0124876A
:1027900088ED90E020E2FC0120838BEF90E0FC01CB
:1027A000108289E490E024E0FC01208389E490E039
:1027B00026E0FC012083000089E490E0FC01808198
:1027C000882F90E081709927892BB1F388ED90E0F4
:1027D00020EAFC01208388ED90E020E8FC012083C2
:1027E00082EE90E0FC01108281EE90E0FC0110820C
:1027F00082EE90E029E0FC01208380EE90E0FC0175
:10280000108289819A8124E0FC01208300002D96AA
:102810000FB6F894DEBF0FBECDBFDF91CF910F9101
:10282000FF90EF90CF9008950F931F93CF93DF9376
:1028300000D01F92CDB7DEB79A8389836B838B81DB
:102840008330B9F40E94C70C89819A81FC0106810A
:10285000178162E080E090E00E94260E882F90E0D1
:10286000980142E0BC0180E090E00E94850F80E08A
:1028700001C081E00F900F900F90DF91CF911F91D9
:102880000F910895CF93DF93CDB7DEB70000DF91AE
:10289000CF910895CF93DF9300D0CDB7DEB780916D
:1028A0000101882F90E09A838983109201010E9490
:1028B0009F0B882329F089819A8182609A8389837A
:1028C0000E94C60B882329F089819A8180619A83AE
:1028D000898389810F900F90DF91CF910895CF93D5
:1028E000DF93CDB7DEB7C855D1090FB6F894DEBF78
:1028F0000FBECDBF9E01295A3F4FF90191838083BE
:10290000CE01895A9F4FFC0180819181FC01808119
:10291000882F90E08F7799278134910511F081E01D
:102920001EC2CE01895A9F4FFC0180819181FC011A
:102930008181882F90E08A33910509F467C18B3338
:10294000910594F48133910509F49AC0823391057D
:102950001CF4C09709F102C28233910509F4A7C0A3
:10296000C39709F414C1FAC18D33910509F48DC1DF
:102970008E33910544F48B33910509F45CC1CC97F7
:1029800009F46EC1EBC18034910509F493C181351E
:10299000910509F4ABC1E2C10E94C70C8FE590E03C
:1029A000FC0180818E830E94C30089835DC0CE01BB
:1029B000895A9F4FFC0180819181FC018281938122
:1029C00080789927892B61F0A89580E690E028E12E
:1029D000FC01208380E690E02CE0FC01208343C0D2
:1029E000CE01895A9F4FFC0180819181FC01828137
:1029F000938181709927892B39F1CE01895A9F4F94
:102A0000FC0180819181FC01848195818093050185
:102A100080910001882F90E081709927892B39F4EB
:102A20000E94A70380910001816080930001CE0184
:102A3000895A9F4FFC0180819181FC0182819381A1
:102A400082700E94ED0B0FC080910001882F90E0F2
:102A500081709927892B39F00E943A0480910001F6
:102A60008E7F8093000119828981882309F09FCF8E
:102A7000CE0106960E94CC000E94110E80E06FC12C
:102A80000E94C70C0E944A148F83CE01895A9F4F1F
:102A9000FC0180819181FC0126813781CE0107965E
:102AA00040E061E070E00E94850F80E058C10E9424
:102AB000C70CCE01895A9F4FFC0180819181FC0196
:102AC000868197819B838A831C828A819B81892B43
:102AD00081F08A819B8101979B838A830E944A149B
:102AE0008887CE01089640E061E070E00E94D80E31
:102AF0008C838C81882309F043C03DC085E48D839D
:102B00008A819B818130914018F48A8181508D8324
:102B1000CE01419601966D810E947809898B898941
:102B2000181604F58989082E000C990B2A813B811F
:102B3000A901481B590BCA0101979B838A830E94F4
:102B4000330C8989082E000C990B01969C01CE014B
:102B5000419640E0B9010E94D80E8C838C81882375
:102B600051F00EC0CE01419640E061E070E00E945D
:102B7000D80E8C8305C08A819B81029708F0BECF56
:102B80008C81882311F40E94460F80E0E8C00E94E7
:102B9000C70CCE01895A9F4FFC0180819181FC01B5
:102BA000868197818634910510F085E490E0BE011E
:102BB000675F7F4F9E012F5E3F4FAC01C9010E94AE
:102BC000351089859A850597D0F0CE0141960E94EF
:102BD0005A0B882371F00E945B0CCE0141960E9433
:102BE0005F0A882389F08091010180688093010148
:102BF0000BC08091010180648093010105C0809128
:102C0000010180628093010180E0A9C00E94C70C8D
:102C1000CE01895A9F4FFC0180819181FC01868100
:102C200097819C0140E066E270E083E193E00E94BE
:102C3000850F80E094C00E94C70CCE01895A9F4F37
:102C4000FC0180819181FC01868197819C0140E09B
:102C500069E070E086E091E00E94850F80E07FC02F
:102C60000E94C70CCE01895A9F4FFC01808191813F
:102C7000FC01868197819C0140E062E071E08FE079
:102C800091E00E94850F80E06AC00E94C70CCE01CF
:102C9000895A9F4FFC0180819181FC018681978137
:102CA0009C0140E062E071E081E192E00E94850FCA
:102CB00080E055C00E94C70C0E94AC0C9C878B879B
:102CC0000E94830C9E878D87CE01895A9F4FFC01FD
:102CD00080819181FC0126813781CE010B9640E0F5
:102CE00064E070E00E94850F80E039C00E94C70C4C
:102CF000CE01419642E450E06FEF70E00E94C717AA
:102D0000CE01895A9F4FFC0180819181FC0186810F
:102D100097818134910510F080E490E0BE01615FFD
:102D20007F4F9E012F5E3F4F2E5F3F4FAC01C90189
:102D30000E9435108F8598898E5F898B83E08A8BFE
:102D40008F8598899C012E5F3F4FCE014196A90146
:102D500060E070E00E94DC1780E001C081E0C85AAA
:102D6000DF4F0FB6F894DEBF0FBECDBFDF91CF911E
:102D700008951F920F9200905F000F9211242F93DD
:102D80003F938F939F93EF93FF93CF93DF93CDB7B1
:102D9000DEB7809102018F5F809302018091020172
:102DA000882F90E08F709927892B51F485E290E06D
:102DB00025E230E0F901308120E22327FC01208365
:102DC00080910301882391F08091030181508093C9
:102DD000030180910301882349F485E290E025E214
:102DE00030E0F90120812F7BFC01208380910401D8
:102DF000882391F080910401815080930401809197
:102E00000401882349F485E290E025E230E0F901ED
:102E100020812F77FC0120830000DF91CF91FF916B
:102E2000EF919F918F913F912F910F9000925F00B2
:102E30000F901F901895CF93DF931F92CDB7DEB7F9
:102E4000A89584E590E0FC018081898384E590E089
:102E5000FC0110820FB6F894A895809160008861FB
:102E600080936000109260000FBECE010196FC01BD
:102E70008081882F90E088709927892B11F00C941D
:102E8000001885E290E02FE1FC01208388E290E0C9
:102E90002FEFFC0120838BE290E02FE7FC012083E1
:102EA00084E290E020EEFC01208387E290E0FC01C8
:102EB00010828AE290E0FC01108281E690E020E836
:102EC000FC01208381E690E0FC01108280E890E024
:102ED000FC01108281E890E022E0FC01208386E37F
:102EE00090E02FEFFC0120838FE690E021E0FC01D1
:102EF000208380E090E00E94D617019681F464E080
:102F000080E090E00E94EC1763E081E090E00E9496
:102F1000EC1768E770E082E090E00E94FE17000086
:102F20000F90DF91CF910895CF92EF92FF920F9380
:102F3000CF93DF93CDB7DEB7F8940E941B17CC2454
:102F4000C3940F2EF4E1EF2EF4E1FF2EF02D03E0F9
:102F50002CEF30E042E166E870E084E790E00E9408
:102F6000701383E590E023E530E0F9012081217FB3
:102F7000FC01208383E590E023E530E0F901208126
:102F80002160FC01208378940E942D12FDCFDC018A
:102F900001C06D9341505040E0F70895F999FECF7C
:102FA00092BD81BDF89A992780B50895A8E1B0E057
:102FB00042E050E00C940618DC01A40FB51F41500C
:102FC000504048F0CB01840F951F2E910E94ED17C1
:102FD00041505040D0F70895262FF999FECF92BD69
:102FE00081BDF89A019700B4021639F01FBA20BDCE
:102FF0000FB6F894FA9AF99A0FBE08950196272F02
:103000000E94ED170C94EC17DC01CB01FC01F9993F
:10301000FECF06C0F2BDE1BDF89A319600B40D9224
:0C30200041505040B8F70895F894FFCFDD
:00000001FF
