S00B00007362332E7372656311
S11300000C9403010C9419010C9419010C9419011A
S11300100C9419010C9419010C9419010C941901F4
S11300200C9419010C9419010C9419010C941901E4
S11300300C9419010C9419010C9419010C941901D4
S11300400C9419010C9419010C9419010C941901C4
S11300500C9419010C9419010C9419010C941901B4
S11300600C9419010C9419010C9419010C941901A4
S11300700C9419010C9419010C9419010C94190194
S11300800C9419010C9419010C9419010C94190184
S11300900C9419010C9419010C9419010C94190174
S11300A00C9419010C9419010C9419010C94190164
S11300B00C9419010C9419010C9419010C94203A14
S11300C00C9419010C94FC390C9419010C94190129
S11300D00C9419010C9419010C9419010C94190134
S11300E00C9419010C9419010C94FF430C941901FC
S11300F00C9423440C9419010C9419010C941901C7
S11301000C9419010C9419010C9419010C94190103
S11301100C9419010C9419010C9419010C941901F3
S11301200C9419010C9419010C9419010C941901E3
S11301300C9419010C9419010C9419010C941901D3
S11301400C9419010C94C7050C9419010C94190111
S11301500C9419010C94A9040C94C6010C94190173
S11301600C9419010C9419010C9419010C941901A3
S11301700C9419010C9419010C9419010C94190193
S11301800C9419010C9419010C9419010C94190183
S11301900C9419010C9419010C9419010C94190173
S11301A00C9419010C9419010C9419010C94190163
S11301B00C9419010C9419010C9419010C94190153
S11301C00C9419010C9419010C9419010C94190143
S11301D00C9419010C9419010C9419010C94190133
S11301E00C9419010C9419010C9419010C94190123
S11301F00C9419010C9419010C94190167626D6532
S11302006C646572320011241FBECFEFCDBFDFE2F4
S1130210DEBF8AE89EE28DBF9EBF20E2A0E0B0E28E
S113022001C01D92AA3EB207E1F70E940C020C9491
S11302309D0B0C9400008FB7F8949FEF90938B2E36
S1130240039A8FBF8FEF0895FC011082118262839D
S113025013820895CF93DF93FC018381882389F06F
S11302609FEF980F93838081EF01C80FD11D9C816C
S11302708F5F80832281821718F01082892F01C03A
S1130280892FDF91CF910895CF93DF93FC01838170
S11302909281891768F48F5F83838181EF01C80F8E
S11302A0D11D6C838F5F891710F4818301C0118283
S11302B0DF91CF9108950F931F93CF93DF93863DE2
S11302C027E0920781F0873DA7E09A0751F58AEE6F
S11302D090E28A389E42C8F48091EA20811118C0C5
S11302E0EAEEF0E20CC08AE89EE28A5E9042FB01EC
S11302F08083918380E045C0808181110BC0319659
S1130300EA382EE2F207C0F305C0EAEEF0E202C0DA
S1130310EAEEF0E2EA5EF042DB01ED93FC9380E06A
S113032030C08B01EC010E940641882349F1CC3096
S1130330D10579F0CD30D105A9F0CB30D105D9F470
S11303408091042090910520F8018083918380E0BE
S113035018C08091062090910720D8018D939C931A
S113036080E00FC08091082090910920F8018083DB
S1130370918380E006C0B801CE010E94180801C034
S113038080E0DF91CF911F910F9108951F920F92FA
S11303900FB60F9211242F938F939F93EF93FF9394
S11303A02FB7F894E0E4F9E080A191A18C509E4F1E
S11303B082AF93AF2FBFE0E0F0E284858F5F848744
S11303C08F7081F4E0910F20F0911020309751F05C
S11303D08281181614F4815082830190F081E02DFB
S11303E03097B1F7E0910D20F0910E20309751F045
S11303F08281181614F4815082830190F081E02DDB
S11304003097B1F7FF91EF919F918F912F910F90BA
S11304100FBE0F901F901895CDB7DEB7C554D10904
S1130420CDBFDEBFF8940E94B506E0E4F9E0118286
S113043013821482168284E087838FEF84878FEF80
S11304409FEF86A397A385E0808300E010E2F80184
S11304506081718185E093E00E94640BF801628100
S1130460738187E093E00E94640BF8012285338551
S113047021153105A1F000E07901FFEFEF1AFF0A21
S1130480F9011491802F90E0612F805C9C4F0E94B1
S1130490590B112321F00F5F9701003268F30E947A
S11304A01B010E940841E8E4F0E08081817F8083A1
S11304B078940E94B808CE0101960E9402418111ED
S11304C03EC165E4CE0101960E940A4118160CF063
S11304D00AC18A81811103C080E88093922ECE01E3
S11304E001960E94BC07882309F4F3C08F3F09F4E6
S11304F0FDC0823009F0E4C08D8188230CF4F6C07D
S1130500823009F4CAC0853141F0813079F48A819E
S11305108111ECC00E941B01C1C0069A89818F3FE2
S113052009F4E4C08C81807C8C83D3C099819F3F83
S113053009F4DCC08132C1F130F4833109F48AC09A
S1130540803241F0A5C0823209F44CC0833209F4F0
S113055062C09EC08C818F73833009F0A4C018855B
S1130560103208F0A2C02E813F81912F990F9E7303
S11305708C81807C982B9C83112309F4AAC0BE0132
S11305806A5F7F4F6B01F2E0CF0ED11C79018FEFD0
S1130590E81AF80AC9010E945B018111DAC01150FE
S11305A0B601970179F795C02C812F73822F90E0C3
S11305B020FD7DC095958795182F882309F489C05F
S11305C07E01E6E0EE0EF11CB701F7018081918116
S11305D00E945B018111BDC0F2E0EF0EF11C1150CD
S11305E099F777C08C81982F9F73963019F44A85B8
S11305F05B8506C08D73843009F05BC04FEF5FEFFD
S11306002E813F81688579859C81907C9C83C9017A
S11306100E947B0843C08C818F73833009F04BC0E8
S11306208885982F9F7041E050E002C0440F551F09
S11306309A95E2F788231CF4642F752F02C060E0BA
S113064070E02E813F819C81907C9C83C9010E9433
S11306507B0824C04C814F738FEF840F803268F580
S11306606E819FEF960F923050F5FE01E80FF11D59
S1130670178250E080E2689FB0011124605C7C4FD7
S1130680CE0107960E94490B8C81807C8C8321C00B
S1130690CE0101960E94044101C08FEF8F3F31F1DA
S11306A081110EC016C083E00BC083E009C083E053
S11306B007C083E005C083E003C083E001C083E09A
S11306C09C81907C92609C839D819E838F8380E833
S11306D08D838A8189838D8180688D83CE01019683
S11306E00E94714503C08E3F09F4099A80B1867057
S11306F019F10E940E418823E1F3F8940E94400B03
S1130700E0E0F8E01682178210828FEF8487E0E43D
S1130710F8E01682178210828487E0E0F9E01682FE
S1130720178210828487E0E4F9E01682178210822F
S113073084870E940041BFCE0E94F308BCCEE8E447
S1130740F0E0808181608083889580818E7F8083C2
S1130750B2CE8F3F09F0B4CFC9CF6091080660953F
S113076080914806809570E0782B809117209091B5
S113077018209B01282739278091192090911A204D
S113078086279727822393238627972780931920E8
S113079090931A20609317207093182030E041E062
S11307A050E0B5C0FA01E623F723EF2BE1F1FC0199
S11307B0EE0FFF1FEE0FFF1FEE0FFF1FE81BF90BDD
S11307C0E458FF4D208121FD14C0FC01EE0FFF1FF2
S11307D0EE0FFF1FEE0FFF1FE81BF90BDF01A458FC
S11307E0BF4D216022602C93E958FF4D168211827F
S11307F01282FC01EE0FFF1FEE0FFF1FEE0FFF1F13
S1130800E81BF90BE958FF4D24812083E09119205E
S1130810F0911A20E42BF52BE0931920F0931A2081
S113082021114AC056C0FC01EE0FFF1FEE0FFF1F3F
S1130830EE0FFF1FE81BF90BE958FF4D2081211132
S11308403BC0FC01EE0FFF1FEE0FFF1FEE0FFF1F5B
S1130850E81BF90BE458FF4D208121FF12C0FC0175
S1130860EE0FFF1FEE0FFF1FEE0FFF1FE81BF90B2C
S1130870DF01A458BF4D21602D7F2C93E958FF4D13
S11308801682FC01EE0FFF1FEE0FFF1FEE0FFF1F7E
S1130890E81BF90BE958FF4D11821282E0911920EF
S11308A0F0911A20DA01A095B095EA23FB23E09396
S11308B01920F0931A200DC02150FC01EE0FFF1FE8
S11308C0EE0FFF1FEE0FFF1FE81BF90BE958FF4D5A
S11308D02083FC01EE0FFF1FEE0FFF1FEE0FFF1F23
S11308E0E81BF90BE958FF4D2681222369F02150BA
S11308F0FC01EE0FFF1FEE0FFF1FEE0FFF1FE81BA3
S1130900F90BE958FF4D26833F5F440F551F832F92
S113091090E020911220213019F0E0E1F0E002C0D3
S1130920EAE0F0E08E179F070CF43CCF672B59F0F8
S113093080915F2081110CC08EE18093632081E05F
S113094080935F20089580915F20811110925F2031
S113095008951F920F920FB60F9211242F933F9375
S11309604F938F939F93CF93DF93EF93FF93809154
S11309706420882309F4FDC098E0909349098130EC
S113098049F4E4E6F0E282E08083118281E080931E
S11309904C09EFC090914C0990FDD7C02091680993
S11309A03091690991E02B32310508F090E041E083
S11309B040934C09843081F128F4823051F0833023
S11309C001F1D7C0853009F449C0863009F45EC00E
S11309D0D0C02B32310548F480916520843608F06C
S11309E0C8C08F5F80936520C4C080916520843126
S11309F020F083E080936420BCC010926520B9C0CD
S1130A0090E091119AC0E4E6F0E284E080831486D9
S1130A101586108AAEC090E0E4E6F0E297878585FB
S1130A20883020F485E080936420A3C0E091702096
S1130A30EA3050F481E08E0FC4E6D0E28C87F0E017
S1130A408E85EC59FF4D8283E4E6F0E29089868539
S1130A508927808B86E080838CC090E0809173200E
S1130A6089136BC090917220990F811103C09093E8
S1130A70722003C0916090937220E4E6F0E28585D1
S1130A808F5F858784E0808374C090E080917320B9
S1130A90891353C0882309F44AC08091702083309D
S1130AA008F44BC080917420811147C080915F206D
S1130AB0882309F442C08091632081113EC0809153
S1130AC066209FEF980F9E3FC0F51092132010925E
S1130AD01420882334F090E0809313209093142002
S1130AE00EC090E4980F983240F590E0982F882734
S1130AF020916720822B809313209093142080915F
S1130B00132090911420892BC1F02FB7F894E0E0C2
S1130B10F9E080A191A18F569F4F84A795A72FBF7D
S1130B2080E4848787818F7C8061878306C0E4E6C4
S1130B30F0E284E0808315861CC0E4E6F0E282E003
S1130B40808311821486108A14C091E090934C091A
S1130B50843009F460CF38F4823009F446CF83300E
S1130B6009F44ECF06C0853009F477CF863009F4F6
S1130B708CCFFF91EF91DF91CF919F918F914F9106
S1130B803F912F910F900FBE0F901F9018951F92B9
S1130B900F920FB60F9211242F933F934F935F93AD
S1130BA06F937F938F939F93AF93BF93CF93DF9371
S1130BB0EF93FF93E0E0F9E087818F7C8783809156
S1130BC01220813089F59091080620914806EBE1C6
S1130BD0F0E282813381831B843008F1C0911920B3
S1130BE0D0911A20909520952370892F90E0922B14
S1130BF0C823D92360911320CF010E94440160913E
S1130C0014208BE190E20E9444016C2F8BE190E26E
S1130C100E9444016D2F8BE190E20E9444011092E6
S1130C201320109214202FC090910806309148068A
S1130C30EBE1F0E282812381821B843000F1C091D8
S1130C401920D0911A2090953095892F90E0932BFC
S1130C50C823D92360911320CF010E9444016091DD
S1130C6014208BE190E20E9444016C2F8BE190E20E
S1130C700E9444016D2F8BE190E20E944401109286
S1130C80132010921420FF91EF91DF91CF91BF9127
S1130C90AF919F918F917F916F915F914F913F9110
S1130CA02F910F900FBE0F901F9018952091162032
S1130CB081E0820F809316202370809119209091F7
S1130CC01A20213031F018F0223059F00DC090EE86
S1130CD00FC0929582958F7089279F70892790ED18
S1130CE007C0892F90EB04C0892F82958F7090E7FD
S1130CF08F70892B809364060895809115208F5FEF
S1130D008A3008F48AE090E01FC0F901EE0FFF1F5B
S1130D10EE0FFF1FEE0FFF1FE21BF30BE458FF4D16
S1130D20408140FF10C0F901EE0FFF1FEE0FFF1FBF
S1130D30EE0FFF1FE21BF30BE958FF4D23818213D3
S1130D4002C08F5F90E09F5F292F30E04091122016
S1130D50413019F040E150E002C04AE050E024176D
S1130D6035079CF28093152008950F931F93CF931A
S1130D70DF931F92CDB7DEB7E0E2F6E08FE0828327
S1130D8080858983898182FF1FC0898181FD1CC080
S1130D90898183FD19C091E090931220E0E6F6E08A
S1130DA014828FEF8183A0EBB0E08C93108AE0E48F
S1130DB0F6E020EC21832C93108A8093020683E0D2
S1130DC082839093220622C01092122020E636E0FD
S1130DD0F90114828FEF8183A0EBB0E08C93108A29
S1130DE020E436E0F90182838C9398E1908B20E231
S1130DF036E0F90182838C9340E1408B44E04183E7
S1130E0020E036E0F90182838C93908BE8E4F0E0F3
S1130E108081817F808300E010E28BE090E0D80144
S1130E208D939C9389E999E9F8018283938380E007
S1130E3092E08483958388E090E08683978310868C
S1130E4011868CEF91E08287938785859685A7EE3E
S1130E50B0E28D939C931197A587B687FD0112820A
S1130E6060E48BE190E20E94240180E7E7E7F0E28E
S1130E70DF011D928A95E9F780E180933006E4E66C
S1130E80F0E210821182148615861786108A118A60
S1130E90E0E8F1E098E590831086E0E4F9E0108260
S1130EA0818388E2838381E08483168217828FEFB3
S1130EB084878FEF9FEF86A397A3F8018785908996
S1130EC0A1E6B0E28D939C931197A787B08BFD01A7
S1130ED0128210925F208091CF018823E4F3ECEC1E
S1130EE0F1E0808188608083809100108F3F19F049
S1130EF08093602003C088EC809360208091602000
S1130F008093762090E024C08091CF018823E4F37D
S1130F10ECECF1E0808188608083F901E295F29540
S1130F20F07FFE27E07FFE27EF5FFF4E80818F3F3B
S1130F3011F480916020F901EE0FFF1FEE0FFF1FE7
S1130F40EE0FFF1FE21BF30BE958FF4D84839F5FF5
S1130F50292F30E080911220813019F040E150E0D7
S1130F6002C04AE050E02417350774F20F90DF9175
S1130F70CF911F910F910895CF93DF93EC01888156
S1130F808F3F09F44DC08C81813B09F04BC08B81AC
S1130F908F7309F049C090E032C0F901EE0FFF1FD2
S1130FA0EE0FFF1FEE0FFF1FE21BF30BE458FF4D84
S1130FB0808180FF23C04A81F901EE0FFF1FEE0FED
S1130FC0FF1FEE0FFF1FE21BF30BE958FF4D838158
S1130FD0481314C0A901440F551F440F551F440F53
S1130FE0551FBA01621B730BFB01E458FF4D80814E
S1130FF08E7F8083FB01E958FF4D13829F5F292F69
S113100030E040911220413019F040E150E002C03C
S11310104AE050E0241735070CF4BFCF8FEF05C02A
S113102082E003C082E001C083E0DF91CF910895A4
S113103085319105A1F08F3F9105D1F0843191055F
S1131040F9F480911220813019F080E190E002C01F
S11310508AE090E0FB018083918380E00895809191
S1131060192090911A20FB018083918380E00895D8
S11310708091602090E0FB018083918380E008955B
S11310809C013A952038310590F58770369527955F
S11310903695279536952795882319F08130A1F048
S11310A028C03327F901EE0FFF1FEE0FFF1FEE0FCD
S11310B0FF1FE21BF30BE958FF4D848190E0FB0115
S11310C08083918380E008953327F901EE0FFF1F99
S11310D0EE0FFF1FEE0FFF1FE21BF30BE958FF4D4E
S11310E081819281FB018083918380E0089584E073
S11310F0089584E00895CF93DF938F3F910561F4C1
S113110080916020809376206F3F710508F06FEF27
S11311106093602080E029C09C013A952038310515
S113112008F5877009F536952795369527953695F0
S1131130279533276F3F710508F06FEFF901EE0F24
S1131140FF1FEE0FFF1FEE0FFF1FE21BF30BEF015C
S1131150C958DF4D6C83E458FF4D808184608083DF
S113116080E003C084E001C084E0DF91CF91089562
S1131170E4E6F0E281E0808311821486118AE0E4DF
S1131180F9E098E091879FEF9487878385E08083D7
S11311900895CF93DF9300D0CDB7DEB780911920A7
S11311A090911A2089839A83E0E4F6E020E4268370
S11311B020E8268310926506298120FF03C020E4DD
S11311C020934506298120FF03C020E8209345068B
S11311D09695879596958795809365060F900F90C1
S11311E0DF91CF910895AF92BF92CF92DF92EF92A9
S11311F0FF920F931F93CF93DF93CDB7DEB7C55400
S1131200D109CDBFDEBF8091112081112DC0809105
S11312101220813049F5109245061092650680E04F
S1131220811104C090E49093450611C2813021F4E9
S113123090E8909345060BC29EEF980F21E030E0B2
S1131240A90102C0440F551F9A95E2F702C0220F6C
S1131250331F4A95E2F7209365068F5F8A3000F3C7
S113126081E08093112005C080911220813009F023
S1131270CFC08091E920811107C085E08093E920E7
S11312800E94AD030E94C9089FB7F89480911E2064
S11312909FBF843008F4DDC1FFB6F8948BE190E27F
S11312A00E942A01082F10E0FFBEFFB6F8948BE1DC
S11312B090E20E942A01182BFFBEDFB6F8948BE15E
S11312C090E20E942A01E82EF12CDFBEDFB6F894EA
S11312D08BE190E20E942A01F82ADFBE90E021E02F
S11312E030E0A70142235323452B99F1492F50E0C5
S11312F087E0989FF0011124E458FF4D808181FF1D
S113130028C0FA01EE0FFF1FEE0FFF1FEE0FFF1FA5
S1131310E41BF50BE958FF4D61817281061717072D
S1131320C1F0FA01EE0FFF1FEE0FFF1FEE0FFF1FBC
S1131330BF01641B750BAB0149585F4DFA01018372
S11313401283FB01E458FF4D808181608083FA01A0
S113135016829F5F220F331F9A3018F27AC110E071
S1131360E12EF12C27E0129FF0011124E958FF4DE2
S11313708681811148C0F701EE0FFF1FEE0FFF1F9A
S1131380EE0FFF1FEE19FF09E458FF4D808180FF27
S11313903AC06701CC0CDD1CCC0CDD1CCC0CDD1C74
S11313A0CE18DF08C60189589F4D5C0182E3F50120
S11313B0868319820E947D06F50183838B838C8149
S11313C0807C83608C8381E38D83F601E458FF4D38
S11313D0808181FF03C010681E8301C01E83F70152
S11313E0EE0FFF1FEE0FFF1FEE0FFF1FEE19FF0999
S11313F0E958FF4D918182819F838887CE010196B0
S11314000E9471452EC11F5F1A3008F4A9CF29C16B
S11314108091E920811107C085E08093E9200E9432
S1131420AD030E9456069FB7F89480911E209FBF7B
S1131430843008F411C11FB7F8948BE190E20E9444
S11314402A01E82EF12C1FBFDFB6F8948BE190E25D
S11314500E942A018701182BDFBEDFB6F8948BE1C6
S113146090E20E942A01E82EF12CDFBEDFB6F89448
S11314708BE190E20E942A019701382BDFBE90E0B5
S113148041E050E0B90164237523672BA1F1692F72
S113149070E087E0989FF0011124E458FF4D8081AB
S11314A081FF29C0FB01EE0FFF1FEE0FFF1FEE0FA0
S11314B0FF1FE61BF70BE958FF4D0180F281E02D79
S11314C00E171F07C1F0FB01EE0FFF1FEE0FFF1FEA
S11314D0EE0FFF1FDF01A61BB70BBD0169587F4D3F
S11314E0FB0101831283FD01E458FF4D808181607B
S11314F08083FB0116829F5F440F551F903110F2C9
S1131500ABC010E0E12EF12C27E0129FF001112472
S1131510E958FF4D8681811148C0F701EE0FFF1F86
S1131520EE0FFF1FEE0FFF1FEE19FF09E458FF4DEA
S1131530808180FF3AC06701CC0CDD1CCC0CDD1C23
S1131540CC0CDD1CCE18DF08C60189589F4D5C0108
S113155082E3F501868319820E947D06F501838367
S11315608B838C81807C83608C8381E38D83F60103
S1131570E458FF4D808181FF03C010681E8301C0C1
S11315801E83F701EE0FFF1FEE0FFF1FEE0FFF1F6D
S1131590EE19FF09E958FF4D918182819F83888765
S11315A0CE0101960E94714504C01F5F103108F4FA
S11315B0A9CF6091602080917620681709F44FC00C
S11315C08091CF0188230CF44AC080E090E00E940F
S11315D0590B809160208093762041C0812F90E048
S11315E027E0129FF0011124E458FF4D208122FFCF
S11315F021C02091CF012223ECF07C01EE0CFF1CD2
S1131600EE0CFF1CEE0CFF1CE81AF90AF701E9586E
S1131610FF4D648182959295907F9827807F9827CB
S11316208F5F9F4F0E94590BF701E458FF4D808153
S11316308B7F80831F5F103188F2E8E4F0E08081C3
S113164081608083889580818E7F80830AC08F5FCC
S1131650E7CD059B84CE05C00599ABCF52CF10E0F2
S1131660BDCFCB5BDF4FCDBFDEBFDF91CF911F91ED
S11316700F91FF90EF90DF90CF90BF90AF900895BF
S113168010926420E0E4F9E017828FEF84871082DF
S11316900895DC01A40FB51F4150504048F0CB0120
S11316A0840F951F2E910E945A0B41505040D0F741
S11316B00895262F0E94910B0080021619F00E94B3
S11316C06B0B0197019708950196272F0E945A0BDF
S11316D00C94590B262FE0ECF1E0378537FDFDCF54
S11316E03485377F3487378531FF09C036E3328745
S11316F038ED34BF31E03387378537FDFDCF33E331
S11317003287808391831282248325E3228728ED04
S113171031E024BF33870196089503D0808199274F
S11317200895E0ECF1E0378537FDFDCF348538606E
S11117303487FC01E050F04F0895F894FFCF89
S113700090914A2F81E0911180E008958627082EFF
S11370108295807F8025092E982F82958F7008266F
S1137020869598278927880F880F880F80250895CB
S11370308FB7F8949FEF90938B2E039A8FBF089588
S1137040CF92DF92EF92FF920F931F93CF93DF9330
S1137050EC018981811103C080E88093922E8C8198
S113706088230CF443C18B01823009F426C1853195
S113707041F0813079F48981811158C10E94183816
S113708055C1069A88818F3F09F450C18B81807C59
S11370908B834AC198819F3F09F448C1803231F003
S11370A0813269F1893109F003C147C01B811F7323
S11370B0133009F01DC10F81003208F005C18D8124
S11370C09E81202F220F2E733B81307C232B2B8318
S11370D0002309F429C1BE016B5F7F4F6B0122E0DD
S11370E0C20ED11C7C01EFEFEE1AFE0A0E9406418B
S11370F081111EC10150B601C70181F715C12B8151
S11371002F73822F90E020FDF5C095958795182F59
S1137110882309F409C17E01F5E0EF0EF11CB701E3
S1137120F701808191810E940641811103C1F2E03F
S1137130EF0EF11C115099F7F7C080B1867009F475
S1137140DBC09B819F739350913208F0D7C02D818F
S11371503E818F8180FF0DC080B18670843009F03C
S1137160CFC0A901490F511D41305E4108F0CAC08A
S11371700CC080B18670823009F0C6C0A901490FE5
S1137180511D4130504708F0C1C04BE85EE2FA019E
S1137190A089B18942895389BD01640F751F2617DF
S11371A0370709F0B5C0911173C0452B39F040E0A1
S11371B0B801CD010E94FF478111ACC080B1867037
S11371C0823061F4EBE8FEE2208931898289938977
S11371D0820F931F81159E4109F09EC080B1867075
S11371E0843071F4EBE8FEE2208931898289938945
S11371F0820F931F248935898217930709F08EC063
S1137200EBE8FEE28689978904891589E0E0F0E0DD
S11372100AC07F012FEFE21AF20A64910E94063835
S113722001501109F7010115110599F7892B09F08E
S113723077C01EEF52C06BE87EE2FB01828993891E
S1137240AC014F5F5F4F428B538BD801A80FB91F1E
S11372502C0F3D1FF90125812C93FB018289938911
S11372608115914099F440E0B80180919B2E909152
S11372709C2E0E94FF47811155C0EBE8FEE28089F5
S113728091899395808B918B128A138AF39404C00D
S11372900F2EF3E0FF2EF02D2F2D30E08B818F7316
S11372A090E0281739073CF28B81807C8B833CC0AB
S11372B0CE010E940441182F01C01FEF1F3FE9F1C6
S11372C0112359F01E3F49F08B81807C82608B83AF
S11372D08C818D831E8380E88C83898188838C8153
S11372E080688C83CE010E94714527C010E025C0C0
S11372F013E0EACF13E0E8CF15E6E6CF13E0E4CFDE
S113730015E6E2CF16E6E0CF15E6DECF16E6DCCFD3
S113731017E6DACF1AE6D8CF16E6D6CF16E6D4CFDC
S11373201BE6D2CF1AE6D0CF10E0D7CF1FEF05C0AF
S1137330182F01C0182F1F3F29F6812FDF91CF91FD
S11373401F910F91FF90EF90DF90CF900895CF930E
S1137350DF93CDB7DEB7C554D140CDBFDEBF98EDC6
S113736094BF92E49093A200009A882321F00E9493
S113737018380E94C941E8E4F0E08081817F80836D
S11373807894CE0101960E940241811118C065E4EF
S1137390CE0101960E94DA4418168CF4BE016A5B91
S11373A07F4FCE0101960E9420388E3F41F40E9407
S11373B000388823E1F380B184700E94FE47E8E43A
S11373C0F0E0808181608083889580818E7F8083D6
S11373D0D8CFFC0123812F732A5F8FB7F894E4E49C
S11373E0FFE297813681931B3481931B8FBF81E029
S11373F0291708F080E008951F920F920FB60F929C
S113740011242F933F934F935F936F937F938F93A5
S11374109F93AF93BF93EF93FF930E944744FF91D1
S1137420EF91BF91AF919F918F917F916F915F91F8
S11374304F913F912F910F900FBE0F901F90189571
S11374401F920F920FB60F9211248F93EF93FF9315
S1137450EBE8FEE285818F5F85838681882319F0BE
S11374608681815086838091932E882329F0EBE8CE
S1137470FEE28085815080878091942E882329F0B4
S1137480EBE8FEE28185815081878091922E8823EA
S113749039F00598EBE8FEE287818150878301C0CB
S11374A0059AFF91EF918F910F900FBE0F901F904F
S11374B01895EF92FF920F931F93CF93DF93FC01E4
S11374C09481963109F4C5C020F4923109F484C042
S11374D005C0983129F0993109F4CAC082E0DDC0B1
S11374E083818F7301980298833209F0C3C0258188
S11374F0368180859185A285B385833542E69407DC
S11375004EE6A40742E4B40751F4878180FDB4C079
S113751021156EE1360709F0B1C0019A3DC08335EB
S11375209246AE46B144C1F5878180FFA9C08091DF
S1137530CF018823E4F3ACECB1E08C9188608C93A8
S113754040910513509106138091CF018823E4F3F1
S1137550ACECB1E08C9188608C938091071390918E
S113756008134F3F6FEF560721F48F3F6FEF9607D5
S113757061F0648575854617570709F083C0468511
S113758057858417950709F07FC0C90101978F3F7C
S11375909F4608F07BC0029A7F018F01085F1F4F4E
S11375A0EBE8FEE2108A118A128A138A248B358B47
S11375B0C0E28FEF9FEFF80161918F010E940638BE
S11375C0C150C9F78093A12E9093A22EF701838115
S11375D0807C838380E061C083818F7390E0029715
S11375E00CF056C083818F73813029F425812330B8
S11375F008F050C001C020E040E2249F9001112413
S1137600205C3C4F90E002C0922F9A018091CF0100
S11376108823E4F3ACECB1E08C9188608C93A901ED
S11376204F5F5F4FD901B05F8C912FEF280F2E3F32
S113763048F421E0290FEF01C90FD11D8D832032B9
S113764018F3922F9F738381807C982B938380E01F
S113765024C083818F738130F9F4858180FF02C057
S1137660049A01C004988381807C838380E015C0E0
S113767085E613C083E011C089E60FC086E60DC01D
S113768089E60BC088E609C088E607C086E605C01F
S113769083E003C083E001C083E0DF91CF911F91B9
S11376A00F91FF90EF9008958A30910509F4E6C098
S11376B058F58430910509F4AAC078F48130910515
S11376C009F474C008F465C08230910509F47BC0E4
S11376D08330910509F489C02EC18730910509F4DE
S11376E0ACC048F48530910509F498C08630910502
S11376F009F49BC020C18830910509F4A5C08930E4
S1137700910509F4AAC017C1843D27E0920709F442
S1137710D6C0B8F4813DA7E09A0709F4BDC030F49F
S1137720803DE7E09E0709F4B0C005C1823DF7E063
S11377309F0709F4B6C0833D27E0920709F4B8C057
S1137740FAC0873D47E09407B9F058F4853DB7E0A7
S11377509B0709F4BBC0863DE7E09E0709F4BDC062
S1137760EAC08A3FF7E09F0709F4D5C08B3F27E0C2
S1137770920709F4D8C0DFC08AEE90E28A389E42AC
S113778008F0BDC08091EA208111BCC0EAEEF0E2AD
S1137790B0C080918C2E90918D2EA0918E2EB091A0
S11377A08F2EFB018083918380E0089580918C2E3D
S11377B090918D2EA0918E2EB0918F2EFB01A083DF
S11377C0B18380E008958091CF018823E4F3ECEC49
S11377D0F1E0808188608083809105139091061385
S11377E0DB018D939C9380E008958091CF018823E1
S11377F0E4F3ECECF1E080818860808380910713EE
S113780090910813FB018083918380E0089584E0C4
S113781090E0DB018D939C9380E0089581E091E0FA
S1137820FB018083918380E0089580918B2E90E00A
S1137830DB018D939C9380E0089580B190E0FB017F
S11378408083918380E0089591B182B1892B90E087
S1137850DB018D939C9380E008958091CF01882370
S1137860E4F3ECECF1E08081886080838091001384
S113787090E0FB018083918380E0089583E090E0B1
S1137880DB018D939C9380E008958BE89EE0FB01DF
S11378908083918380E00895DB011D921C9280E037
S11378A0089587EA9EE0FB018083918380E0089538
S11378B080E093E0DB018D939C9380E0089580E069
S11378C090E1FB018083918380E0089580E094E05F
S11378D0DB018D939C9380E008958AE89EE28A5EA2
S11378E09042FB018083918380E00895808181111F
S11378F00BC03196EA382EE2F207C0F305C0EAEE77
S1137900F0E202C0EAEEF0E2EA5EF042DB01ED935F
S1137910FC9380E008958091A72E90E0FB01808382
S1137920918380E008958091A82E90E0DB018D93EF
S11379309C9380E008959C012A5D374020323105F4
S1137940A0F42331310560F4880F991FFC01EC5D2C
S1137950FF4D80819181FB018083918380E00895B4
S1137960DB011D921C9280E008959C013850211582
S11379703840C8F49858880F991F8115E4E09E0791
S113798038F52091CF012223E4F3ECECF1E02081DF
S113799028602083FC01F05F80819181DB018D935D
S11379A09C9380E008959C0130512115304190F45E
S11379B09059880F991F8115E0E19E0768F4FC0136
S11379C0F05E80819181DB018D939C9380E008952A
S11379D084E0089584E0089584E00895CF92DF92CE
S11379E0EF92FF920F931F93CF93DF931F92CDB724
S11379F0DEB78C018091942E811123C08091800682
S1137A0081FD19C08AE08093942E8091880691E0CC
S1137A1081FD90E082E080938106E9E9FEE28081C5
S1137A208927A8E9BEE22C91282380958923822BFB
S1137A308C93908306C081E08093942E82E080939F
S1137A4082068091932E81117FC080E28093932ED1
S1137A508091982E80FF11C080919A2E80FD12C0D3
S1137A60EBE8FEE28785816087879FB7F89420B1B1
S1137A7080E1822780B99FBF05C0EBE8FEE28785DD
S1137A808E7F878780B189839091972E8917A9F17A
S1137A908093972E898184FF07C0EBE8FEE28AEA8F
S1137AA0828785E5838720C0898183FF06C0EBE850
S1137AB0FEE2128681E0838717C0898186FF06C0B3
S1137AC0EBE8FEE28AEA828713860EC0898180FF92
S1137AD006C0EBE8FEE28EE38287138605C0EBE87E
S1137AE0FEE288E182871386898185FF06C0898149
S1137AF083FD03C087E08093952E81B1811103C07B
S1137B0082B1882319F08FE08093962EEBE8FEE291
S1137B108285880F811D8287882324F481E08093E5
S1137B20860603C081E080938506EBE8FEE2838548
S1137B30880F811D8387882324F482E0809386063E
S1137B4003C082E080938506069B0AC00E94003829
S1137B508823E1F388ED84BF81E080937900FFCF2F
S1137B6090B1892F887093FFA0C08091CF018823A2
S1137B70E4F3ECECF1E0808188608083C09005132D
S1137B80D09006138091CF018823E4F3ECECF1E06C
S1137B90808188608083E0900713F090081365E487
S1137BA0C8010E94DA4418160CF04BC0F801818118
S1137BB0811147C08091922E811106C00E949D417F
S1137BC08F718F5F8093912E80E88093922EF801BD
S1137BD08181811136C080818F3F99F58481813103
S1137BE081F583818F73893061F545815681678181
S1137BF0708580918C2E90918D2EA0918E2EB091B7
S1137C008F2E481759076A077B07D9F48185928517
S1137C10C816D906B1F483859485E816F90689F463
S1137C20858580938B2E1082848180688483128260
S1137C308381807C8383C8010E947145039881E01D
S1137C4034C08091922E882359F18091912E811114
S1137C5029C0F801108212828381807C886083832A
S1137C6080E18483C8010E94E9398823E9F00E94F5
S1137C709D418F71865FEBE8FEE28683818192816C
S1137C80A381B481F80185839683A783B087C186D5
S1137C90D286E386F486C8010E94714581E005C05E
S1137CA081E003C081E001C081E00F90DF91CF91BA
S1137CB01F910F91FF90EF90DF90CF900895F8946B
S1137CC06FEF80E093E00E94FD4780E00E94A739B7
S11380000C94BF400C9419010C9419010C9419019F
S11380100C9419010C9419010C9419010C94190174
S11380200C9419010C9419010C9419010C94190164
S11380300C9419010C9419010C9419010C94190154
S11380400C9419010C9419010C9419010C94190144
S11380500C9419010C9419010C9419010C94190134
S11380600C9419010C9419010C9419010C94190124
S11380700C9419010C9419010C9419010C94190114
S11380800C9419010C9419010C9419010C94190104
S11380900C9419010C9419010C9419010C941901F4
S11380A00C9419010C9419010C9419010C941901E4
S11380B00C9419010C9419010C9419010C94203A94
S11380C00C9419010C94FC390C9419010C941901A9
S11380D00C9419010C9419010C9419010C941901B4
S11380E00C9419010C9419010C94FF430C9419017C
S11380F00C9423440C9419010C9419010C94190147
S11381000C9419010C9419010C9419010C94190183
S11381100C9419010C9419010C9419010C94190173
S11381200C9419010C9419010C9419010C94190163
S11381300C9419010C9419010C9419010C94190153
S11381400C9419010C94C7050C9419010C94190191
S11381500C9419010C94A9040C94C6010C941901F3
S11381600C9419010C9419010C9419010C94190123
S11381700C9419010C9419010C94190118951124EB
S11381801FBE8AE89EE28DBF9EBFE0E0F0E210824F
S11181903196EF3F8FE2F807D1F70C941046BA
S11382000C945F3E0C94EE3C0C94593A0C94543B01
S11382100C94C9410C94DA440C9471450C940038C4
S11382200C94BF400C94BF400C94BF400C94BF40CE
S11382300C94BF400C94BF400C94BF400C94BF40BE
S1138240EEEEFFE28081918101968083918308950F
S1138250E4EFFFE280819181019680839183089508
S1138260E8EDFFE2808191810196808391830895F6
S1138270E7EAFEE28085982F990F8927982F969533
S11382808927982F990F990F892780870895CF936D
S1138290DF93FC0186819481890F2781821780F402
S11382A09F5F94838381EF01C80FD11D68878F5F1F
S11382B0821718F4838381E009C0138281E006C029
S11382C0E7EAFEE281818460818380E0DF91CF91DF
S11382D00895CF93DF93FC0196818181981728F448
S11382E0C7EADEE289818260898386819181891B64
S11382F08683118280818283DF91CF910895CF9309
S1138300DF93FC0196818181891770F48F5F8183EB
S11383109081EF01C90FD11D88859F5F90832781CC
S1138320921740F0108206C0E7EAFEE28181826083
S1138330818380E0DF91CF9108954FB7F894EBE803
S1138340FEE2808D918D9C01220F331F822793279B
S11383509C0136952795329522952F7023273F70DF
S11383602327822793279C01220F331F220F331FB9
S113837082279327808F918F4FBF08958091A30800
S11383808F7C8062E0EAFAE0838384818261848363
S11383900895CF93DF93E7EAFEE287E591E0DF01FA
S11383A09C011D9221503040E1F710828091A32E50
S11383B0808789E182831186128613861486158646
S11383C0168617868CE8808BE4E4FFE21082118223
S11383D0128213821482158216828783E0E8F6E003
S11383E094E092838289877C8861828B88E085838C
S11383F08183C0E0DAE019821B821C8222E02E8392
S11384001F828FEF8C874FEF5FE34EA35FA39883A8
S113841081858C7F8187928781E08487E0EAFAE016
S1138420178287E0868380E481831382248387E232
S113843085838481886084830E94BE41DF91CF91CB
S113844008952FB7F894E0E0FAE040A151A1840F19
S1138450951F9F7380AF91AF80E1848787818C7F64
S1138460826087832FBF089521E020938C06209398
S1138470A72E80529E4F0E9421420895CF92DF92F0
S1138480EF92FF920F931F93CF93DF931F92CDB779
S1138490DEB707EA1EE2E0EAFAE0F180F9829981A8
S11384A0E0808F2D8C7189838823D1F00E94204134
S11384B0F4FE08C0F801E75BFE4F808191810196CC
S11384C080839183F3FC0E942841F2FE98C0F80156
S11384D0E55BFE4F808191810196808391838FC0FB
S11384E090FF36C0F8018585882369F0E15BFE4F73
S11384F0808191810196808391830E942041F801BB
S113850015868685848780918B2EE81619F0FFEFF7
S1138510EF1275C0E0EAFAE084818D7F84836801FC
S113852089E0C80ED11C60E0C6010E94474188233F
S113853061F06E2DC6010E944741882331F00E94EC
S1138540304186E0F801878365C00E94284155C008
S1138550F80185859781981740F4EF5AFE4F808182
S1138560918101968083918348C0843029F48E2DB3
S11385708F738A5FF80187836E2DC80109960E9464
S11385804741811103C00E94284137C00E943041F5
S1138590F801258530E04781842F90E00196281763
S11385A03907C1F58685E80FF11D418BF801178263
S11385B0E0EAFAE0848182608483F8012785858576
S11385C090E0820F911D208930E0281739072CF4A0
S11385D0E7EAFEE2818184608183F80197858585DD
S11385E0890F8787158684858687EAEDFFE2808177
S11385F091810196808391830DC00E942041F801EE
S11386001782E0EAFAE0848182608483F8011586A7
S1138610868584870F90DF91CF911F910F91FF90F2
S1138620EF90DF90CF900895CF93DF93C7EADEE217
S11386308C8181110DC0FE01E356FF4F8681873086
S1138640F8F01B82CF010E947F418C838823C1F004
S11386508B81811115C08881811112C00E9438411B
S1138660282F2F779A81892F90E00896880F991FD9
S1138670880F991F880F991F820F911D0E94344201
S1138680DF91CF910895CF93DF93C7EADEE2E0EA6A
S1138690FAE08181482F447130812D8188232CF4A4
S11386A041110DC0321313C064C0FE01E15CFE4FE2
S11386B080819181019680839183442341F0FE015E
S11386C0EF5BFE4F80819181019680839183321705
S11386D041F0FE01ED5BFE4F808191810196808324
S11386E0918388E08093860682E08883FE01E35CC0
S11386F0FE4F808191810196808391838A818111CB
S113870005C09B818C81981788F01BC081508A8397
S1138710FE01E356FF4F118282818083E855FF4FAB
S1138720808191810196808391831CC0CE01835600
S11387309F4F0E947F418B818F5F8B839C81891720
S1138740A8F31C821B8289E18A83CE0183569F4F42
S11387500E946941FE01EB5AFE4F8081918101968E
S1138760808391831C821B8280E092E00E942142DC
S113877043C0E0EAFAE084818F7E848383818F7C26
S113878083838481806184839B818C81981780F4A6
S1138790CE0183569F4F0E947F419B819F5F9B83A5
S11387A08D83E0EAFAE094819E7F948380831DC0E8
S11387B0E0EAFAE08381837F83831C821B82CE01FB
S11387C083569F4F0E946941E2EEFFE280819181CE
S11387D00196808391830E94BE418881833009F48D
S11387E0188289E18A830E941443C95CDE4F888120
S11387F09981019688839983DF91CF9108951F927F
S11388000F920FB60F9211242F933F934F935F93C0
S11388106F937F938F939F93AF93BF93EF93FF9344
S11388200E943E42FF91EF91BF91AF919F918F9132
S11388307F916F915F914F913F912F910F900FBE58
S11388400F901F9018951F920F920FB60F9211243C
S11388502F933F934F935F936F937F938F939F9344
S1138860AF93BF93EF93FF930E944343FF91EF9124
S1138870BF91AF919F918F917F916F915F914F9134
S11388803F912F910F900FBE0F901F901895CF938B
S1138890DF93E0E0FAE087818C7F87838091A72EC5
S11388A0813009F05CC08091AB2E882309F454C058
S11388B08091AA2E811150C0E4E4FFE29681818167
S11388C0891738F4E091442FF0E0EC5BF04DC0855B
S11388D006C0E7EAFEE2818182608183C0E088E02D
S11388E080938506E0EAFAE084818960848380913C
S11388F08C0680FD04C08091880682FD0EC00E9413
S113890038418F772091A92E90E038E0239F800D85
S1138910911D11240E9434424AC0E0EAFAE08481A5
S11389208F7E84838381837C838384818061848339
S1138930838188608383C08384818D7F848384E47E
S11389409FE20E947F41E7EAFEE2C58383818F5F55
S1138950838383E080832BC01092A72E28C08230AB
S113896071F4C0E8D6E088E08D8384E08093A72E7C
S113897080E890E00E94214281E08C8718C0843016
S1138980B1F480918C0680FD0BC08091880682FF33
S113899007C00E94BE411092A72E0E94144307C034
S11389A081E080938C0680E890E00E942142DF9170
S11389B0CF910895CF92DF92EF92FF920F931F937E
S11389C0CF93DF938C01663008F472C08FB7F894AC
S11389D0E7EAFEE227859285322F391B373008F407
S11389E071C0921738F4E091B02EF0E0E955F14DE2
S11389F0C18969C0E7EAFEE2918192609183C0E097
S1138A0062C04C2F50E04F5F5F4F832F90E084177C
S1138A1095070CF44FC06C1708F44EC0C63408F028
S1138A204DC0DFB7F8940F2EF0EBCF2EFEE2DF2E11
S1138A30F02D80EB9EE20E947F41DFBFCC23D1F07A
S1138A40F12CDFEFEFB6F894C6010E947F41EFBE30
S1138A509D2F982728E03CE8969508F493272A95BB
S1138A60D9F7D92FF8018083F3940F5F1F4FFC16B9
S1138A7048F301C0DFEF1FB7F89480EB9EE20E9439
S1138A8069411FBFDD2359F00E942041EAEFFFE254
S1138A90808191810196808391838EEF19C0ECEDE2
S1138AA0FFE2808191810196808391838C2F10C095
S1138AB08DEF0EC08FEF0CC08DEF0AC08CEF08C095
S1138AC08FEF06C0C0E08FBFC63008F09ACFF8CF52
S1138AD0DF91CF911F910F91FF90EF90DF90CF9096
S1138AE00895BF92CF92DF92EF92FF920F931F935C
S1138AF0CF93DF936C01FC01C381CF73CA5F8FB73F
S1138B00F894E4E4FFE297812681921B2481921B6E
S1138B108FBFC91718F0099A82E078C0DFB7F894BC
S1138B2004E41FE26C2F84E49FE20E944741DFBF0C
S1138B30882309F439C0EC2EF12CF1E0EF1AF10886
S1138B401E141F042CF5B12CCFEF81E0B81203C022
S1138B5060918B2E04C0F601EB0DF11D60819C2FFA
S1138B60962788E02CE8969508F492278A95D9F7F9
S1138B70C92FDFB7F894C8010E944741DFBF88239B
S1138B80A9F0B3948B2D90E08E159F05F4F201C0EB
S1138B90CFEFDFB7F8946C2F84E49FE20E94474143
S1138BA0DFBF81110DC003C083E001C086E09FB721
S1138BB0F894E4E4FFE21482258123839FBF26C056
S1138BC0CFB7F894E4E4FFE286819481492F50E022
S1138BD0480F511D278130E0241735072CF4E7EAAC
S1138BE0FEE2218124602183890FE4E4FFE286838D
S1138BF01482838185830E941443CFBFE0EEFFE299
S1138C008081918101968083918380E0DF91CF916F
S1138C101F910F91FF90EF90DF90CF90BF90089538
S1138C20A89588ED84BF21E020938000C0E0D6E0C1
S1138C301882E0EBF0E08FEF808390E1988BC0E244
S1138C40D6E018828083988BC0E4D6E018828083B3
S1138C50988BC0E6D6E018828083988BC0E8D6E073
S1138C601882808388E1888B2093B20083E080930C
S1138C70B300EBE8FEE221E030E0228F338F8983FA
S1138C808E831286138610B811B812B8E0E5F0E0AE
S1138C908BEC82838081886080838091510083FD86
S1138CA005C000008091510083FFFBCFE0E5F0E0B8
S1138CB082EC85838081806180838091510084FD72
S1138CC005C000008091510084FFFBCF88ED84BF74
S1138CD084E080934000E0E5F0E080818E7F808333
S1138CE08091CF018823E4F3ECECF1E0808188608B
S1138CF080838091011390910213A0910313B0918A
S1138D000413CBE8DEE289839A83AB83BC832FEF21
S1138D102883188A198A1A8A1B8A1C8A1D8A888FB2
S1138D20998F0E949D418D831F828091CF0188235A
S1138D30E4F3ECECF1E0808188608083809100139F
S1138D40811107C088ED84BF87E08093A2000C9452
S10B8D50000081E00E94A73934
S1138E00CF92DF92EF92FF921F93CF93DF937C0177
S1138E106B019091CF019923E4F3EE248FB7F8947A
S1138E20C0ECD1E096E29A8761E070E028ED30E092
S1138E30F70124BF6093CB011A868FBF8091CF01C5
S1138E408823E4F320E030E0442341F0F601E20F0C
S1138E50F31F85919491782F192F05C0F601E20F25
S1138E60F31F708111819FB7F894C0ECD1E053E2F5
S1138E705A87F701E20FF31FADE9B0E0072E112E78
S1138E80A4BFE89511241A869FBF2E5F3F4F2F3F42
S1138E903105D1F2C8F28FB7F894FF2024F49DE293
S1138EA09093CA0103C095E29093CA012DE930E082
S1138EB0F70124BFE8951092CA018FBF8091CF01BA
S1138EC08823E4F380E090E0442319F0F601249130
S1138ED002C0F6012081F701E80FF91FE4912E1377
S1138EE00AC00196FFEFCF1ADF0A8F3F910561F3A5
S1138EF058F380E001C081E0DF91CF911F91FF9092
S1138F00EF90DF90CF9008959C018091CF0188234A
S1138F10E4F34FB7F8949091CF019923E4F3ECEC88
S1138F20F1E0908198609083F901F05F8081861769
S1138F3001F1E0ECF1E09485977F948786E38287E2
S1138F4088ED84BF81E08093CB019091CF01992378
S1138F50E4F3E0ECF1E083E382872083318312823F
S1138F60648385E3828788ED84BF81E08093CB01AD
S1138F7012864FBF8091CF018823E4F30895082F10
S1138F80F894811113C0E12CF12CC0E0D0E710E07B
S1138F9041E0B701CE010E94FF47182BD395F3940B
S1138FA0C1158EE8D807A0F3111105C061E00111C5
S1138FB060E0619501C06EEF80E093E00E94FD47A0
S10F8FC088ED84BF81E080937900FFCF2E
S10B8FF8FFCF86CFC0CF00CFEC
S9030000FC
