:100000000C9403010C9419010C9419010C9419011E
:100010000C9419010C9419010C9419010C941901F8
:100020000C9419010C9419010C9419010C941901E8
:100030000C9419010C9419010C9419010C941901D8
:100040000C9419010C9419010C9419010C941901C8
:100050000C9419010C9419010C9419010C941901B8
:100060000C9419010C9419010C9419010C941901A8
:100070000C9419010C9419010C9419010C94190198
:100080000C9419010C9419010C9419010C94190188
:100090000C9419010C9419010C9419010C94190178
:1000A0000C9419010C9419010C9419010C94190168
:1000B0000C9419010C9419010C9419010C94203A18
:1000C0000C9419010C94FC390C9419010C9419012D
:1000D0000C9419010C9419010C9419010C94190138
:1000E0000C9419010C9419010C94FF430C94190100
:1000F0000C9423440C9419010C9419010C941901CB
:100100000C9419010C9419010C9419010C94190107
:100110000C9419010C9419010C9419010C941901F7
:100120000C9419010C9419010C9419010C941901E7
:100130000C9419010C9419010C9419010C941901D7
:100140000C9419010C94CE040C9419010C9419010F
:100150000C9419010C94AD030C94C6010C94190174
:100160000C9419010C9419010C9419010C941901A7
:100170000C9419010C9419010C9419010C94190197
:100180000C9419010C9419010C9419010C94190187
:100190000C9419010C9419010C9419010C94190177
:1001A0000C9419010C9419010C9419010C94190167
:1001B0000C9419010C9419010C9419010C94190157
:1001C0000C9419010C9419010C9419010C94190147
:1001D0000C9419010C9419010C9419010C94190137
:1001E0000C9419010C9419010C9419010C94190127
:1001F0000C9419010C9419010C94190167626D6536
:100200006C646572320011241FBECFEFCDBFDFE2F8
:10021000DEBF8AE89EE28DBF9EBF20E2A0E0B0E292
:1002200001C01D92A93EB207E1F70E940C020C9496
:10023000AB0A0C9400008FB7F8949FEF90938B2E2D
:10024000039A8FBF8FEF0895FC01108211826283A1
:1002500013820895CF93DF93FC018381882389F073
:100260009FEF980F93838081EF01C80FD11D9C8170
:100270008F5F80832281821718F01082892F01C03E
:10028000892FDF91CF910895CF93DF93FC01838174
:100290009281891768F48F5F83838181EF01C80F92
:1002A000D11D6C838F5F891710F4818301C0118287
:1002B000DF91CF9108950F931F93CF93DF93863DE6
:1002C00027E0920781F0873DA7E09A0751F589EE74
:1002D00090E28A389E42C8F48091E920811118C0CA
:1002E000E9EEF0E20CC08AE89EE2895E9042FB01F2
:1002F0008083918380E045C0808181110BC031965D
:10030000EA382EE2F207C0F305C0E9EEF0E202C0DF
:10031000E9EEF0E2E95EF042DB01ED93FC9380E070
:1003200030C08B01EC010E940641882349F1CC309A
:10033000D10579F0CD30D105A9F0CB30D105D9F474
:100340008091042090910520F8018083918380E0C2
:1003500018C08091062090910720D8018D939C931E
:1003600080E00FC08091082090910920F8018083DF
:10037000918380E006C0B801CE010E94480701C009
:1003800080E0DF91CF911F910F9108951F920F92FE
:100390000FB60F9211242F938F939F93EF93FF9398
:1003A0002FB7F894E0E4F9E080A191A18C509E4F22
:1003B00082AF93AF2FBFE0E0F0E284858F5F848748
:1003C0008F7081F4E0910F20F0911020309751F060
:1003D0008281181614F4815082830190F081E02DFF
:1003E0003097B1F7E0910D20F0910E20309751F049
:1003F0008281181614F4815082830190F081E02DDF
:100400003097B1F7FF91EF919F918F912F910F90BE
:100410000FBE0F901F901895CDB7DEB7C554D10908
:10042000CDBFDEBFF8940E94E905E0E4F9E0118257
:1004300013821482168284E087838FEF84878FEF84
:100440009FEF86A397A385E0808300E010E2F80188
:100450006081718185E093E00E94720AF8016281F7
:10046000738187E093E00E94720AF8012285338548
:1004700021153105A1F000E07901FFEFEF1AFF0A25
:10048000F9011491802F90E0612F805C9C4F0E94B5
:10049000670A112321F00F5F9701003268F30E9471
:1004A0001B010E940841E8E4F0E08081817F8083A5
:1004B00078940E94E807CE0101960E9402418111C2
:1004C0003EC165E4CE0101960E940A4118160CF067
:1004D0000AC18A81811103C080E88093922ECE01E7
:1004E00001960E94EC06882309F4F3C08F3F09F4BB
:1004F000FDC0823009F0E4C08D8188230CF4F6C081
:10050000823009F4CAC0853141F0813079F48A81A2
:100510008111ECC00E941B01C1C0069A89818F3FE6
:1005200009F4E4C08C81807C8C83D3C099819F3F87
:1005300009F4DCC08132C1F130F4833109F48AC09E
:10054000803241F0A5C0823209F44CC0833209F4F4
:1005500062C09EC08C818F73833009F0A4C018855F
:10056000103208F0A2C02E813F81912F990F9E7307
:100570008C81807C982B9C83112309F4AAC0BE0136
:100580006A5F7F4F6B01F2E0CF0ED11C79018FEFD4
:10059000E81AF80AC9010E945B018111DAC0115002
:1005A000B601970179F795C02C812F73822F90E0C7
:1005B00020FD7DC095958795182F882309F489C063
:1005C0007E01E6E0EE0EF11CB701F701808191811A
:1005D0000E945B018111BDC0F2E0EF0EF11C1150D1
:1005E00099F777C08C81982F9F73963019F44A85BC
:1005F0005B8506C08D73843009F05BC04FEF5FEF01
:100600002E813F81688579859C81907C9C83C9017E
:100610000E94AB0743C08C818F73833009F04BC0BD
:100620008885982F9F7041E050E002C0440F551F0D
:100630009A95E2F788231CF4642F752F02C060E0BE
:1006400070E02E813F819C81907C9C83C9010E9437
:10065000AB0724C04C814F738FEF840F803268F555
:100660006E819FEF960F923050F5FE01E80FF11D5D
:10067000178250E080E2689FB0011124605C7C4FDB
:10068000CE0107960E94570A8C81807C8C8321C002
:10069000CE0101960E94044101C08FEF8F3F31F1DE
:1006A00081110EC016C083E00BC083E009C083E057
:1006B00007C083E005C083E003C083E001C083E09E
:1006C0009C81907C92609C839D819E838F8380E837
:1006D0008D838A8189838D8180688D83CE01019687
:1006E0000E94714503C08E3F09F4099A80B186705B
:1006F00019F10E940E418823E1F3F8940E944E0AFA
:10070000E0E0F8E01682178210828FEF8487E0E441
:10071000F8E01682178210828487E0E0F9E0168202
:10072000178210828487E0E4F9E016821782108233
:1007300084870E940041BFCE0E94F907BCCEE8E446
:10074000F0E0808181608083889580818E7F8083C6
:10075000B2CE8F3F09F0B4CFC9CF1F920F920FB620
:100760000F9211242F933F934F938F939F93CF9387
:10077000DF93EF93FF9380916320882309F400C1F6
:1007800098E090934909813049F4E3E6F0E282E091
:100790008083118281E080934C09F2C090914C09D2
:1007A00090FDDAC0209168093091690991E02B32FF
:1007B000310508F090E041E040934C09843081F12C
:1007C00028F4823051F0833001F1DAC0853009F429
:1007D00049C0863009F45EC0D3C02B32310548F4DD
:1007E00080916420843608F0CBC08F5F80936420B2
:1007F000C7C080916420843120F083E0809363201F
:10080000BFC010926420BCC090E091119DC0E3E68F
:10081000F0E284E0808314861586108AB1C090E0EF
:10082000E3E6F0E297878585883020F485E08093C1
:100830006320A6C0E0916F20EA3050F481E08E0F73
:10084000C3E6D0E28C87F0E08E85ED59FF4D8283C0
:10085000E3E6F0E2908986858927808B86E08083B5
:100860008FC090E08091722089136EC090917120AA
:10087000990F811103C09093712003C091609093F0
:100880007120E3E6F0E285858F5F858784E08083D1
:1008900077C090E080917220891356C0882309F4B4
:1008A0004DC080916F20833008F44EC0809173203A
:1008B00081114AC080915E20882309F445C080914F
:1008C0006220811141C0809165209FEF980F9E3F6B
:1008D000D8F51092112010921220882334F090E065
:1008E00080931120909312200EC090E4980F9832BC
:1008F00058F590E0982F882720916620822B8093CE
:100900001120909312208091112090911220892B18
:10091000D9F02FB7F894E0E0F9E080A191A18F56CB
:100920009F4F84A795A72FBF80E4848787818F7C02
:100930008061878384E08093260606C0E3E6F0E2C8
:1009400084E0808315861CC0E3E6F0E282E08083C9
:1009500011821486108A14C091E090934C0984305F
:1009600009F45DCF38F4823009F443CF833009F4C1
:100970004BCF06C0853009F474CF863009F489CF97
:10098000FF91EF91DF91CF919F918F914F913F9187
:100990002F910F900FBE0F901F9018951F920F92DE
:1009A0000FB60F9211242F933F934F935F936F9342
:1009B0007F938F939F93AF93BF93CF93DF93EF93E7
:1009C000FF93E0E0F9E087818F7C878390910806B0
:1009D00020914806EAE1F0E282813381831B843072
:1009E00000F1C0911720D091182090952095892F63
:1009F00090E0922BC823D92360911120CF010E944F
:100A00004401609112208AE190E20E9444016C2F1F
:100A10008AE190E20E9444016D2F8AE190E20E94F7
:100A200044011092112010921220FF91EF91DF915A
:100A3000CF91BF91AF919F918F917F916F915F9176
:100A40004F913F912F910F900FBE0F901F901895CF
:100A500083E080934606109264066091172070919F
:100A6000182020E047C081E090E002C0880F991F65
:100A70004A95E2F786239723892BD9F1211104C0E7
:100A800080E48093450635C0213021F480E88093CE
:100A900045062FC0223021F481E08093650629C0ED
:100AA000233021F482E08093650623C0243021F4B2
:100AB00084E0809365061DC0253021F488E0809392
:100AC000650617C0263021F480E18093650611C0C9
:100AD000273021F480E2809365060BC0283021F492
:100AE00080E48093650605C0293019F480E880937E
:100AF00065062F5F422F50E080911920813019F058
:100B000080E190E002C08AE090E0481759070CF4B9
:100B1000AACF08952091142081E0820F80931420A1
:100B200023708091172090911820213031F018F017
:100B3000223059F00DC090EE0FC0929582958F70C3
:100B400089279F70892790ED07C0892F90EB04C0FB
:100B5000892F82958F7090E78F70892B8093640620
:100B60000895809113208F5F8A3008F48AE090E026
:100B70001FC0F901EE0FFF1FEE0FFF1FEE0FFF1F4B
:100B8000E21BF30BE558FF4D408140FF10C0F90117
:100B9000EE0FFF1FEE0FFF1FEE0FFF1FE21BF30B09
:100BA000EA58FF4D2381821302C08F5F90E09F5F60
:100BB000292F30E040911920413019F040E150E0F8
:100BC00002C04AE050E0241735079CF280931320BE
:100BD0000895FF920F931F93CF93DF931F92CDB78A
:100BE000DEB7E0E2F6E08FE0828380858983898149
:100BF00082FF1DC0898181FD1AC0898183FD17C0D4
:100C000081E080931920E0E6F6E014821182A0EBE7
:100C1000B0E08FEF8C93108AE0E4F6E090EC9183E3
:100C20009C93108A8093020683E0828320C01092F6
:100C3000192020E636E0F90114828FEF8183A0EBC2
:100C4000B0E08C93108A20E436E0F90182838C9323
:100C500098E1908B20E236E0F90182838C9340E1A9
:100C6000408B20E036E0F90182838C93908BFF2447
:100C7000F394F092480000E010E28BE090E0D8019D
:100C80008D939C9389E999E9F8018283938380E0AD
:100C900092E08483958388E090E086839783108632
:100CA00011868CEF91E08287938785859685A6EEE5
:100CB000B0E28D939C931197A587B687FD011282B0
:100CC00060E48AE190E20E94240180E7E6E7F0E236
:100CD000DF011D928A95E9F780E180933006E3E613
:100CE000F0E210821182148615861786108A118A06
:100CF000E0E8F1E098E590831086E0E4F9E0108206
:100D0000818388E28383F482168217828FEF84873F
:100D10008FEF9FEF86A397A3F80187859089A0E6C0
:100D2000B0E28D939C931197A787B08BFD0112823F
:100D300010925E208091CF018823E4F3ECECF1E087
:100D4000808188608083809100108F3F19F08093AC
:100D50005F2003C088EC80935F2080915F208093A8
:100D6000752090E024C08091CF018823E4F3ECEC5F
:100D7000F1E0808188608083F901E295F295F07F4F
:100D8000FE27E07FFE27EF5FFF4E80818F3F11F44B
:100D900080915F20F901EE0FFF1FEE0FFF1FEE0F96
:100DA000FF1FE21BF30BEA58FF4D84839F5F292F3F
:100DB00030E080911920813019F040E150E002C00C
:100DC0004AE050E02417350774F20F90DF91CF917D
:100DD0001F910F91FF900895CF93DF93EC018881CD
:100DE0008F3F09F44DC08C81813B09F04BC08B8152
:100DF0008F7309F049C090E032C0F901EE0FFF1F78
:100E0000EE0FFF1FEE0FFF1FE21BF30BE558FF4D28
:100E1000808180FF23C04A81F901EE0FFF1FEE0F92
:100E2000FF1FEE0FFF1FE21BF30BEA58FF4D8381FC
:100E3000481314C0A901440F551F440F551F440FF8
:100E4000551FBA01621B730BFB01E558FF4D8081F2
:100E50008E7F8083FB01EA58FF4D13829F5F292F0D
:100E600030E040911920413019F040E150E002C0DB
:100E70004AE050E0241735070CF4BFCF8FEF05C0D0
:100E800082E003C082E001C083E0DF91CF9108954A
:100E900085319105A1F08F3F9105D1F08431910505
:100EA000F9F480911920813019F080E190E002C0BE
:100EB0008AE090E0FB018083918380E00895809137
:100EC000172090911820FB018083918380E0089582
:100ED00080915F2090E0FB018083918380E0089502
:100EE0009C013A952038310590F587703695279505
:100EF0003695279536952795882319F08130A1F0EE
:100F000028C03327F901EE0FFF1FEE0FFF1FEE0F72
:100F1000FF1FE21BF30BEA58FF4D848190E0FB01B9
:100F20008083918380E008953327F901EE0FFF1F3E
:100F3000EE0FFF1FEE0FFF1FE21BF30BEA58FF4DF2
:100F400081819281FB018083918380E0089584E018
:100F5000089584E00895CF93DF938F3F910561F466
:100F600080915F20809375206F3F710508F06FEFCF
:100F700060935F2080E029C09C013A9520383105BC
:100F800008F5877009F53695279536952795369596
:100F9000279533276F3F710508F06FEFF901EE0FCA
:100FA000FF1FEE0FFF1FEE0FFF1FE21BF30BEF0102
:100FB000CA58DF4D6C83E558FF4D80818460808383
:100FC00080E003C084E001C084E0DF91CF91089508
:100FD000E3E6F0E281E0808311821486118AE0E486
:100FE000F9E098E091879FEF9487878385E080837D
:100FF0000895AF92BF92CF92DF92EF92FF920F933C
:101000001F93CF93DF93CDB7DEB7C554D109CDBFC2
:10101000DEBF8091E820811106C185E08093E82041
:1010200060910806609580914806809570E0782B65
:1010300080911520909116209B01282739278091B7
:10104000172090911820862797278223932386279D
:101050009727809317209093182060931520709302
:10106000162030E041E050E0B6C0FB01E423F52358
:10107000EF2BE9F1FC01EE0FFF1FEE0FFF1FEE0F4C
:10108000FF1FE81BF90BE558FF4D208121FD14C01F
:10109000FC01EE0FFF1FEE0FFF1FEE0FFF1FE81BFF
:1010A000F90BDF01A558BF4D216022602C93EA584F
:1010B000FF4D168211821282FC01EE0FFF1FEE0F10
:1010C000FF1FEE0FFF1FE81BF90BEA58FF4D2481AD
:1010D0002083E0911720F0911820E42BF52BE0936A
:1010E0001720F0931820222309F457C049C0FC01AF
:1010F000EE0FFF1FEE0FFF1FEE0FFF1FE81BF90B98
:10110000EA58FF4D208121113BC0FC01EE0FFF1F6B
:10111000EE0FFF1FEE0FFF1FE81BF90BE558FF4D09
:10112000208121FF12C0FC01EE0FFF1FEE0FFF1FF9
:10113000EE0FFF1FE81BF90BDF01A558BF4D216023
:101140002D7F2C93EA58FF4D1682FC01EE0FFF1FF6
:10115000EE0FFF1FEE0FFF1FE81BF90BEA58FF4DC4
:1011600011821282E0911720F0911820DA01A095E7
:10117000B095EA23FB23E0931720F09318200DC0CD
:101180002150FC01EE0FFF1FEE0FFF1FEE0FFF1FA0
:10119000E81BF90BEA58FF4D2083FC01EE0FFF1FFF
:1011A000EE0FFF1FEE0FFF1FE81BF90BEA58FF4D74
:1011B0002681222369F02150FC01EE0FFF1FEE0F64
:1011C000FF1FEE0FFF1FE81BF90BEA58FF4D2683A8
:1011D0003F5F440F551F832F90E02091192021304D
:1011E00019F0E0E1F0E002C0EAE0F0E08E179F07BE
:1011F0000CF43BCF672B59F080915E2081110CC01D
:101200008EE18093622081E080935E2005C0809112
:101210005E20811110925E20213019F40E94280571
:1012200002C00E948A059FB7F89480911D209FBF3D
:10123000843008F465C0FFB6F8948AE190E20E9419
:101240002A01082F10E0FFBEDFB6F8948AE190E291
:101250000E942A017801F82ADFBEDFB6F8948AE1FD
:1012600090E20E942A01082F10E0DFBEDFB6F8945A
:101270008AE190E20E942A019801382BDFBE90E0BB
:1012800041E050E0B90164237523672BA1F1692F78
:1012900070E087E0989FF0011124E558FF4D8081B0
:1012A00081FF29C0FB01EE0FFF1FEE0FFF1FEE0FA6
:1012B000FF1FE61BF70BEA58FF4D0180F281E02D7E
:1012C000EE16FF06C1F0FB01EE0FFF1FEE0FFF1F32
:1012D000EE0FFF1FDF01A61BB70BBD016A587F4D44
:1012E000FB01E182F282FD01E558FF4D80818160C2
:1012F0008083FB0116829F5F440F551F903110F2CF
:10130000059B5AC069C0F801EE0FFF1FEE0FFF1FCB
:10131000EE0FFF1FE01BF10BEA58FF4D8681811194
:1013200049C0F801EE0FFF1FEE0FFF1FEE0FFF1F6A
:10133000E01BF10BE558FF4D808180FF3BC0680149
:10134000CC0CDD1CCC0CDD1CCC0CDD1CC01AD10A75
:10135000C6018A589F4D5C0182E3F501868319829C
:101360000E94B105F50183838B838C81807C83602F
:101370008C8381E38D83F601E558FF4D808181FFE9
:1013800004C08F2D80688E8301C0FE82F801EE0FAD
:10139000FF1FEE0FFF1FEE0FFF1FE01BF10BEA58C0
:1013A000FF4D918182819F838887CE0101960E94A3
:1013B000714512C0F39401C0F12C0F2D10E0809103
:1013C0001920813019F080E190E002C08AE090E0BD
:1013D000081719070CF497CF60915F208091752052
:1013E000681761F08091CF01882344F080E090E09D
:1013F0000E94670A80915F208093752010E030C0C2
:10140000FC01EE0FFF1FEE0FFF1FEE0FFF1FE81B8B
:10141000F90BE558FF4D208122FF21C02091CF011B
:101420002223ECF07C01EE0CFF1CEE0CFF1CEE0CFA
:10143000FF1CE81AF90AF701EA58FF4D648182950A
:101440009295907F9827807F98278F5F9F4F0E946B
:10145000670AF701E558FF4D80818B7F80831F5F0E
:10146000812F90E020911920213019F020E130E007
:1014700002C02AE030E08217930714F28895CB5B14
:10148000DF4FCDBFDEBFDF91CF911F910F91FF9056
:10149000EF90DF90CF90BF90AF90089510926320AF
:1014A000E0E4F9E017828FEF848710820895DC0171
:1014B000A40FB51F4150504048F0CB01840F951F39
:1014C0002E910E94680A41505040D0F70895262F6F
:1014D0000E949F0A0080021619F00E94790A019763
:1014E000019708950196272F0E94680A0C94670AB5
:1014F000262FE0ECF1E0378537FDFDCF3485377FCF
:101500003487378531FF09C036E3328738ED34BF81
:1015100031E03387378537FDFDCF33E33287808372
:1015200091831282248325E3228728ED31E024BFB2
:1015300033870196089503D0808199270895E0ECC0
:10154000F1E0378537FDFDCF348538603487FC0105
:0A155000E050F04F0895F894FFCF2B
:1070000090914A2F81E0911180E008958627082E03
:107010008295807F8025092E982F82958F70082673
:10702000869598278927880F880F880F80250895CF
:107030008FB7F8949FEF90938B2E039A8FBF08958C
:10704000CF92DF92EF92FF920F931F93CF93DF9334
:10705000EC018981811103C080E88093922E8C819C
:1070600088230CF443C18B01823009F426C1853199
:1070700041F0813079F48981811158C10E9418381A
:1070800055C1069A88818F3F09F450C18B81807C5D
:107090008B834AC198819F3F09F448C1803231F007
:1070A000813269F1893109F003C147C01B811F7327
:1070B000133009F01DC10F81003208F005C18D8128
:1070C0009E81202F220F2E733B81307C232B2B831C
:1070D000002309F429C1BE016B5F7F4F6B0122E0E1
:1070E000C20ED11C7C01EFEFEE1AFE0A0E9406418F
:1070F00081111EC10150B601C70181F715C12B8155
:107100002F73822F90E020FDF5C095958795182F5D
:10711000882309F409C17E01F5E0EF0EF11CB701E7
:10712000F701808191810E940641811103C1F2E043
:10713000EF0EF11C115099F7F7C080B1867009F479
:10714000DBC09B819F739350913208F0D7C02D8193
:107150003E818F8180FF0DC080B18670843009F040
:10716000CFC0A901490F511D41305E4108F0CAC08E
:107170000CC080B18670823009F0C6C0A901490FE9
:10718000511D4130504708F0C1C04BE85EE2FA01A2
:10719000A089B18942895389BD01640F751F2617E3
:1071A000370709F0B5C0911173C0452B39F040E0A5
:1071B000B801CD010E94FF478111ACC080B186703B
:1071C000823061F4EBE8FEE220893189828993897B
:1071D000820F931F81159E4109F09EC080B1867079
:1071E000843071F4EBE8FEE2208931898289938949
:1071F000820F931F248935898217930709F08EC067
:10720000EBE8FEE28689978904891589E0E0F0E0E1
:107210000AC07F012FEFE21AF20A64910E94063839
:1072200001501109F7010115110599F7892B09F092
:1072300077C01EEF52C06BE87EE2FB018289938922
:10724000AC014F5F5F4F428B538BD801A80FB91F22
:107250002C0F3D1FF90125812C93FB018289938915
:107260008115914099F440E0B80180919B2E909156
:107270009C2E0E94FF47811155C0EBE8FEE28089F9
:1072800091899395808B918B128A138AF39404C011
:107290000F2EF3E0FF2EF02D2F2D30E08B818F731A
:1072A00090E0281739073CF28B81807C8B833CC0AF
:1072B000CE010E940441182F01C01FEF1F3FE9F1CA
:1072C000112359F01E3F49F08B81807C82608B83B3
:1072D0008C818D831E8380E88C83898188838C8157
:1072E00080688C83CE010E94714527C010E025C0C4
:1072F00013E0EACF13E0E8CF15E6E6CF13E0E4CFE2
:1073000015E6E2CF16E6E0CF15E6DECF16E6DCCFD7
:1073100017E6DACF1AE6D8CF16E6D6CF16E6D4CFE0
:107320001BE6D2CF1AE6D0CF10E0D7CF1FEF05C0B3
:10733000182F01C0182F1F3F29F6812FDF91CF9101
:107340001F910F91FF90EF90DF90CF900895CF9312
:10735000DF93CDB7DEB7C554D140CDBFDEBF98EDCA
:1073600094BF92E49093A200009A882321F00E9497
:1073700018380E94C941E8E4F0E08081817F808371
:107380007894CE0101960E940241811118C065E4F3
:10739000CE0101960E94DA4418168CF4BE016A5B95
:1073A0007F4FCE0101960E9420388E3F41F40E940B
:1073B00000388823E1F380B184700E94FE47E8E43E
:1073C000F0E0808181608083889580818E7F8083DA
:1073D000D8CFFC0123812F732A5F8FB7F894E4E4A0
:1073E000FFE297813681931B3481931B8FBF81E02D
:1073F000291708F080E008951F920F920FB60F92A0
:1074000011242F933F934F935F936F937F938F93A9
:107410009F93AF93BF93EF93FF930E944744FF91D5
:10742000EF91BF91AF919F918F917F916F915F91FC
:107430004F913F912F910F900FBE0F901F90189575
:107440001F920F920FB60F9211248F93EF93FF9319
:10745000EBE8FEE285818F5F85838681882319F0C2
:107460008681815086838091932E882329F0EBE8D2
:10747000FEE28085815080878091942E882329F0B8
:10748000EBE8FEE28185815081878091922E8823EE
:1074900039F00598EBE8FEE287818150878301C0CF
:1074A000059AFF91EF918F910F900FBE0F901F9053
:1074B0001895EF92FF920F931F93CF93DF93FC01E8
:1074C0009481963109F4C5C020F4923109F484C046
:1074D00005C0983129F0993109F4CAC082E0DDC0B5
:1074E00083818F7301980298833209F0C3C025818C
:1074F000368180859185A285B385833542E69407E0
:107500004EE6A40742E4B40751F4878180FDB4C07D
:1075100021156EE1360709F0B1C0019A3DC08335EF
:107520009246AE46B144C1F5878180FFA9C08091E3
:10753000CF018823E4F3ACECB1E08C9188608C93AC
:1075400040910513509106138091CF018823E4F3F5
:10755000ACECB1E08C9188608C9380910713909192
:1075600008134F3F6FEF560721F48F3F6FEF9607D9
:1075700061F0648575854617570709F083C0468515
:1075800057858417950709F07FC0C90101978F3F80
:107590009F4608F07BC0029A7F018F01085F1F4F52
:1075A000EBE8FEE2108A118A128A138A248B358B4B
:1075B000C0E28FEF9FEFF80161918F010E940638C2
:1075C000C150C9F78093A12E9093A22EF701838119
:1075D000807C838380E061C083818F7390E0029719
:1075E0000CF056C083818F73813029F425812330BC
:1075F00008F050C001C020E040E2249F9001112417
:10760000205C3C4F90E002C0922F9A018091CF0104
:107610008823E4F3ACECB1E08C9188608C93A901F1
:107620004F5F5F4FD901B05F8C912FEF280F2E3F36
:1076300048F421E0290FEF01C90FD11D8D832032BD
:1076400018F3922F9F738381807C982B938380E023
:1076500024C083818F738130F9F4858180FF02C05B
:10766000049A01C004988381807C838380E015C0E4
:1076700085E613C083E011C089E60FC086E60DC021
:1076800089E60BC088E609C088E607C086E605C023
:1076900083E003C083E001C083E0DF91CF911F91BD
:1076A0000F91FF90EF9008958A30910509F4E6C09C
:1076B00058F58430910509F4AAC078F48130910519
:1076C00009F474C008F465C08230910509F47BC0E8
:1076D0008330910509F489C02EC18730910509F4E2
:1076E000ACC048F48530910509F498C08630910506
:1076F00009F49BC020C18830910509F4A5C08930E8
:10770000910509F4AAC017C1843D27E0920709F446
:10771000D6C0B8F4813DA7E09A0709F4BDC030F4A3
:10772000803DE7E09E0709F4B0C005C1823DF7E067
:107730009F0709F4B6C0833D27E0920709F4B8C05B
:10774000FAC0873D47E09407B9F058F4853DB7E0AB
:107750009B0709F4BBC0863DE7E09E0709F4BDC066
:10776000EAC08A3FF7E09F0709F4D5C08B3F27E0C6
:10777000920709F4D8C0DFC089EE90E28A389E42B1
:1077800008F0BDC08091E9208111BCC0E9EEF0E2B3
:10779000B0C080918C2E90918D2EA0918E2EB091A4
:1077A0008F2EFB018083918380E0089580918C2E41
:1077B00090918D2EA0918E2EB0918F2EFB01A083E3
:1077C000B18380E008958091CF018823E4F3ECEC4D
:1077D000F1E0808188608083809105139091061389
:1077E000DB018D939C9380E008958091CF018823E5
:1077F000E4F3ECECF1E080818860808380910713F2
:1078000090910813FB018083918380E0089584E0C8
:1078100090E0DB018D939C9380E0089581E091E0FE
:10782000FB018083918380E0089580918B2E90E00E
:10783000DB018D939C9380E0089580B190E0FB0183
:107840008083918380E0089591B182B1892B90E08B
:10785000DB018D939C9380E008958091CF01882374
:10786000E4F3ECECF1E08081886080838091001388
:1078700090E0FB018083918380E0089583E090E0B5
:10788000DB018D939C9380E008958BE89EE0FB01E3
:107890008083918380E00895DB011D921C9280E03B
:1078A000089587EA9EE0FB018083918380E008953C
:1078B00080E093E0DB018D939C9380E0089580E06D
:1078C00090E1FB018083918380E0089580E094E063
:1078D000DB018D939C9380E008958AE89EE2895EA7
:1078E0009042FB018083918380E008958081811123
:1078F0000BC03196EA382EE2F207C0F305C0E9EE7C
:10790000F0E202C0E9EEF0E2E95EF042DB01ED9365
:10791000FC9380E008958091A72E90E0FB01808386
:10792000918380E008958091A82E90E0DB018D93F3
:107930009C9380E008959C012A5D374020323105F8
:10794000A0F42331310560F4880F991FFC01EC5D30
:10795000FF4D80819181FB018083918380E00895B8
:10796000DB011D921C9280E008959C013850211586
:107970003840C8F49858880F991F8115E4E09E0795
:1079800038F52091CF012223E4F3ECECF1E02081E3
:1079900028602083FC01F05F80819181DB018D9361
:1079A0009C9380E008959C0130512115304190F462
:1079B0009059880F991F8115E0E19E0768F4FC013A
:1079C000F05E80819181DB018D939C9380E008952E
:1079D00084E0089584E0089584E00895CF92DF92D2
:1079E000EF92FF920F931F93CF93DF931F92CDB728
:1079F000DEB78C018091942E811123C08091800686
:107A000081FD19C08AE08093942E8091880691E0D0
:107A100081FD90E082E080938106E9E9FEE28081C9
:107A20008927A8E9BEE22C91282380958923822BFF
:107A30008C93908306C081E08093942E82E08093A3
:107A400082068091932E81117FC080E28093932ED5
:107A50008091982E80FF11C080919A2E80FD12C0D7
:107A6000EBE8FEE28785816087879FB7F89420B1B5
:107A700080E1822780B99FBF05C0EBE8FEE28785E1
:107A80008E7F878780B189839091972E8917A9F17E
:107A90008093972E898184FF07C0EBE8FEE28AEA93
:107AA000828785E5838720C0898183FF06C0EBE854
:107AB000FEE2128681E0838717C0898186FF06C0B7
:107AC000EBE8FEE28AEA828713860EC0898180FF96
:107AD00006C0EBE8FEE28EE38287138605C0EBE882
:107AE000FEE288E182871386898185FF06C089814D
:107AF00083FD03C087E08093952E81B1811103C07F
:107B000082B1882319F08FEF8093962EEBE8FEE286
:107B10008285880F811D8287882324F481E08093E9
:107B2000860603C081E080938506EBE8FEE283854C
:107B3000880F811D8387882324F482E08093860642
:107B400003C082E080938506069B0AC00E9400382D
:107B50008823E1F388ED84BF81E080937900FFCF33
:107B600090B1892F887093FFA0C08091CF018823A6
:107B7000E4F3ECECF1E0808188608083C090051331
:107B8000D09006138091CF018823E4F3ECECF1E070
:107B9000808188608083E0900713F090081365E48B
:107BA000C8010E94DA4418160CF04BC0F80181811C
:107BB000811147C08091922E811106C00E949D4183
:107BC0008F718F5F8093912E80E88093922EF801C1
:107BD0008181811136C080818F3F99F58481813107
:107BE00081F583818F73893061F545815681678185
:107BF000708580918C2E90918D2EA0918E2EB091BB
:107C00008F2E481759076A077B07D9F4818592851B
:107C1000C816D906B1F483859485E816F90689F467
:107C2000858580938B2E1082848180688483128264
:107C30008381807C8383C8010E947145039881E021
:107C400034C08091922E882359F18091912E811118
:107C500029C0F801108212828381807C886083832E
:107C600080E18483C8010E94E9398823E9F00E94F9
:107C70009D418F71865FEBE8FEE286838181928170
:107C8000A381B481F80185839683A783B087C186D9
:107C9000D286E386F486C8010E94714581E005C062
:107CA00081E003C081E001C081E00F90DF91CF91BE
:107CB0001F910F91FF90EF90DF90CF900895F8946F
:107CC0006FEF80E093E00E94FD4780E00E94A739BB
:108000000C94BF400C9419010C9419010C941901A3
:108010000C9419010C9419010C9419010C94190178
:108020000C9419010C9419010C9419010C94190168
:108030000C9419010C9419010C9419010C94190158
:108040000C9419010C9419010C9419010C94190148
:108050000C9419010C9419010C9419010C94190138
:108060000C9419010C9419010C9419010C94190128
:108070000C9419010C9419010C9419010C94190118
:108080000C9419010C9419010C9419010C94190108
:108090000C9419010C9419010C9419010C941901F8
:1080A0000C9419010C9419010C9419010C941901E8
:1080B0000C9419010C9419010C9419010C94203A98
:1080C0000C9419010C94FC390C9419010C941901AD
:1080D0000C9419010C9419010C9419010C941901B8
:1080E0000C9419010C9419010C94FF430C94190180
:1080F0000C9423440C9419010C9419010C9419014B
:108100000C9419010C9419010C9419010C94190187
:108110000C9419010C9419010C9419010C94190177
:108120000C9419010C9419010C9419010C94190167
:108130000C9419010C9419010C9419010C94190157
:108140000C9419010C94CE040C9419010C9419018F
:108150000C9419010C94AD030C94C6010C941901F4
:108160000C9419010C9419010C9419010C94190127
:108170000C9419010C9419010C94190118951124EF
:108180001FBE8AE89EE28DBF9EBFE0E0F0E2108253
:0E8190003196EF3F8FE2F807D1F70C941046BE
:108200000C945F3E0C94EE3C0C94593A0C94543B05
:108210000C94C9410C94DA440C9471450C940038C8
:108220000C94BF400C94BF400C94BF400C94BF40D2
:108230000C94BF400C94BF400C94BF400C94BF40C2
:10824000EEEEFFE280819181019680839183089513
:10825000E4EFFFE28081918101968083918308950C
:10826000E8EDFFE2808191810196808391830895FA
:10827000E7EAFEE28085982F990F8927982F969537
:108280008927982F990F990F892780870895CF9371
:10829000DF93FC0186819481890F2781821780F406
:1082A0009F5F94838381EF01C80FD11D68878F5F23
:1082B000821718F4838381E009C0138281E006C02D
:1082C000E7EAFEE281818460818380E0DF91CF91E3
:1082D0000895CF93DF93FC0196818181981728F44C
:1082E000C7EADEE289818260898386819181891B68
:1082F0008683118280818283DF91CF910895CF930D
:10830000DF93FC0196818181891770F48F5F8183EF
:108310009081EF01C90FD11D88859F5F90832781D0
:10832000921740F0108206C0E7EAFEE28181826087
:10833000818380E0DF91CF9108954FB7F894EBE807
:10834000FEE2808D918D9C01220F331F822793279F
:108350009C0136952795329522952F7023273F70E3
:108360002327822793279C01220F331F220F331FBD
:1083700082279327808F918F4FBF08958091A30804
:108380008F7C8062E0EAFAE0838384818261848367
:108390000895CF93DF93E7EAFEE287E591E0DF01FE
:1083A0009C011D9221503040E1F710828091A32E54
:1083B000808789E18283118612861386148615864A
:1083C000168617868CE8808BE4E4FFE21082118227
:1083D000128213821482158216828783E0E8F6E007
:1083E00094E092838289877C8861828B88E0858390
:1083F0008183C0E0DAE019821B821C8222E02E8396
:108400001F828FEF8C874FEF5FE34EA35FA39883AC
:1084100081858C7F8187928781E08487E0EAFAE01A
:10842000178287E0868380E481831382248387E236
:1084300085838481886084830E94BE41DF91CF91CF
:1084400008952FB7F894E0E0FAE040A151A1840F1D
:10845000951F9F7380AF91AF80E1848787818C7F68
:10846000826087832FBF089521E020938C0620939C
:10847000A72E80529E4F0E9421420895CF92DF92F4
:10848000EF92FF920F931F93CF93DF931F92CDB77D
:10849000DEB707EA1EE2E0EAFAE0F180F9829981AC
:1084A000E0808F2D8C7189838823D1F00E94204138
:1084B000F4FE08C0F801E75BFE4F808191810196D0
:1084C00080839183F3FC0E942841F2FE98C0F8015A
:1084D000E55BFE4F808191810196808391838FC0FF
:1084E00090FF36C0F8018585882369F0E15BFE4F77
:1084F000808191810196808391830E942041F801BF
:1085000015868685848780918B2EE81619F0FFEFFB
:10851000EF1275C0E0EAFAE084818D7F8483680100
:1085200089E0C80ED11C60E0C6010E944741882343
:1085300061F06E2DC6010E944741882331F00E94F0
:10854000304186E0F801878365C00E94284155C00C
:10855000F80185859781981740F4EF5AFE4F808186
:10856000918101968083918348C0843029F48E2DB7
:108570008F738A5FF80187836E2DC80109960E9468
:108580004741811103C00E94284137C00E943041F9
:10859000F801258530E04781842F90E00196281767
:1085A0003907C1F58685E80FF11D418BF801178267
:1085B000E0EAFAE0848182608483F801278585857A
:1085C00090E0820F911D208930E0281739072CF4A4
:1085D000E7EAFEE2818184608183F80197858585E1
:1085E000890F8787158684858687EAEDFFE280817B
:1085F00091810196808391830DC00E942041F801F2
:108600001782E0EAFAE0848182608483F8011586AB
:10861000868584870F90DF91CF911F910F91FF90F6
:10862000EF90DF90CF900895CF93DF93C7EADEE21B
:108630008C8181110DC0FE01E356FF4F868187308A
:10864000F8F01B82CF010E947F418C838823C1F008
:108650008B81811115C08881811112C00E9438411F
:10866000282F2F779A81892F90E00896880F991FDD
:10867000880F991F880F991F820F911D0E94344205
:10868000DF91CF910895CF93DF93C7EADEE2E0EA6E
:10869000FAE08181482F447130812D8188232CF4A8
:1086A00041110DC0321313C064C0FE01E15CFE4FE6
:1086B00080819181019680839183442341F0FE0162
:1086C000EF5BFE4F80819181019680839183321709
:1086D00041F0FE01ED5BFE4F808191810196808328
:1086E000918388E08093860682E08883FE01E35CC4
:1086F000FE4F808191810196808391838A818111CF
:1087000005C09B818C81981788F01BC081508A839B
:10871000FE01E356FF4F118282818083E855FF4FAF
:10872000808191810196808391831CC0CE01835604
:108730009F4F0E947F418B818F5F8B839C81891724
:10874000A8F31C821B8289E18A83CE0183569F4F46
:108750000E946941FE01EB5AFE4F80819181019692
:10876000808391831C821B8280E092E00E942142E0
:1087700043C0E0EAFAE084818F7E848383818F7C2A
:1087800083838481806184839B818C81981780F4AA
:10879000CE0183569F4F0E947F419B819F5F9B83A9
:1087A0008D83E0EAFAE094819E7F948380831DC0EC
:1087B000E0EAFAE08381837F83831C821B82CE01FF
:1087C00083569F4F0E946941E2EEFFE280819181D2
:1087D0000196808391830E94BE418881833009F491
:1087E000188289E18A830E941443C95CDE4F888124
:1087F0009981019688839983DF91CF9108951F9283
:108800000F920FB60F9211242F933F934F935F93C4
:108810006F937F938F939F93AF93BF93EF93FF9348
:108820000E943E42FF91EF91BF91AF919F918F9136
:108830007F916F915F914F913F912F910F900FBE5C
:108840000F901F9018951F920F920FB60F92112440
:108850002F933F934F935F936F937F938F939F9348
:10886000AF93BF93EF93FF930E944343FF91EF9128
:10887000BF91AF919F918F917F916F915F914F9138
:108880003F912F910F900FBE0F901F901895CF938F
:10889000DF93E0E0FAE087818C7F87838091A72EC9
:1088A000813009F05CC08091AB2E882309F454C05C
:1088B0008091AA2E811150C0E4E4FFE2968181816B
:1088C000891738F4E091442FF0E0EC5BF04DC0855F
:1088D00006C0E7EAFEE2818182608183C0E088E031
:1088E00080938506E0EAFAE0848189608483809140
:1088F0008C0680FD04C08091880682FD0EC00E9417
:1089000038418F772091A92E90E038E0239F800D89
:10891000911D11240E9434424AC0E0EAFAE08481A9
:108920008F7E84838381837C83838481806184833D
:10893000838188608383C08384818D7F848384E482
:108940009FE20E947F41E7EAFEE2C58383818F5F59
:10895000838383E080832BC01092A72E28C08230AF
:1089600071F4C0E8D6E088E08D8384E08093A72E80
:1089700080E890E00E94214281E08C8718C084301A
:10898000B1F480918C0680FD0BC08091880682FF37
:1089900007C00E94BE411092A72E0E94144307C038
:1089A00081E080938C0680E890E00E942142DF9174
:1089B000CF910895CF92DF92EF92FF920F931F9382
:1089C000CF93DF938C01663008F472C08FB7F894B0
:1089D000E7EAFEE227859285322F391B373008F40B
:1089E00071C0921738F4E091B02EF0E0E955F14DE6
:1089F000C18969C0E7EAFEE2918192609183C0E09B
:108A000062C04C2F50E04F5F5F4F832F90E0841780
:108A100095070CF44FC06C1708F44EC0C63408F02C
:108A20004DC0DFB7F8940F2EF0EBCF2EFEE2DF2E15
:108A3000F02D80EB9EE20E947F41DFBFCC23D1F07E
:108A4000F12CDFEFEFB6F894C6010E947F41EFBE34
:108A50009D2F982728E03CE8969508F493272A95BF
:108A6000D9F7D92FF8018083F3940F5F1F4FFC16BD
:108A700048F301C0DFEF1FB7F89480EB9EE20E943D
:108A800069411FBFDD2359F00E942041EAEFFFE258
:108A9000808191810196808391838EEF19C0ECEDE6
:108AA000FFE2808191810196808391838C2F10C099
:108AB0008DEF0EC08FEF0CC08DEF0AC08CEF08C099
:108AC0008FEF06C0C0E08FBFC63008F09ACFF8CF56
:108AD000DF91CF911F910F91FF90EF90DF90CF909A
:108AE0000895BF92CF92DF92EF92FF920F931F9360
:108AF000CF93DF936C01FC01C381CF73CA5F8FB743
:108B0000F894E4E4FFE297812681921B2481921B72
:108B10008FBFC91718F0099A82E078C0DFB7F894C0
:108B200004E41FE26C2F84E49FE20E944741DFBF10
:108B3000882309F439C0EC2EF12CF1E0EF1AF1088A
:108B40001E141F042CF5B12CCFEF81E0B81203C026
:108B500060918B2E04C0F601EB0DF11D60819C2FFE
:108B6000962788E02CE8969508F492278A95D9F7FD
:108B7000C92FDFB7F894C8010E944741DFBF88239F
:108B8000A9F0B3948B2D90E08E159F05F4F201C0EF
:108B9000CFEFDFB7F8946C2F84E49FE20E94474147
:108BA000DFBF81110DC003C083E001C086E09FB725
:108BB000F894E4E4FFE21482258123839FBF26C05A
:108BC000CFB7F894E4E4FFE286819481492F50E026
:108BD000480F511D278130E0241735072CF4E7EAB0
:108BE000FEE2218124602183890FE4E4FFE2868391
:108BF0001482838185830E941443CFBFE0EEFFE29D
:108C00008081918101968083918380E0DF91CF9173
:108C10001F910F91FF90EF90DF90CF90BF9008953C
:108C2000A89588ED84BF21E020938000C0E0D6E0C5
:108C30001882E0EBF0E08FEF808390E1988BC0E248
:108C4000D6E018828083988BC0E4D6E018828083B7
:108C5000988BC0E6D6E018828083988BC0E8D6E077
:108C60001882808388E1888B2093B20083E0809310
:108C7000B300EBE8FEE221E030E0228F338F8983FE
:108C80008E831286138610B811B812B8E0E5F0E0B2
:108C90008BEC82838081886080838091510083FD8A
:108CA00005C000008091510083FFFBCFE0E5F0E0BC
:108CB00082EC85838081806180838091510084FD76
:108CC00005C000008091510084FFFBCF88ED84BF78
:108CD00084E080934000E0E5F0E080818E7F808337
:108CE0008091CF018823E4F3ECECF1E0808188608F
:108CF00080838091011390910213A0910313B0918E
:108D00000413CBE8DEE289839A83AB83BC832FEF25
:108D10002883188A198A1A8A1B8A1C8A1D8A888FB6
:108D2000998F0E949D418D831F828091CF0188235E
:108D3000E4F3ECECF1E080818860808380910013A3
:108D4000811107C088ED84BF87E08093A2000C9456
:088D5000000081E00E94A73938
:108E0000CF92DF92EF92FF921F93CF93DF937C017B
:108E10006B019091CF019923E4F3EE248FB7F8947E
:108E2000C0ECD1E096E29A8761E070E028ED30E096
:108E3000F70124BF6093CB011A868FBF8091CF01C9
:108E40008823E4F320E030E0442341F0F601E20F10
:108E5000F31F85919491782F192F05C0F601E20F29
:108E6000F31F708111819FB7F894C0ECD1E053E2F9
:108E70005A87F701E20FF31FADE9B0E0072E112E7C
:108E8000A4BFE89511241A869FBF2E5F3F4F2F3F46
:108E90003105D1F2C8F28FB7F894FF2024F49DE297
:108EA0009093CA0103C095E29093CA012DE930E086
:108EB000F70124BFE8951092CA018FBF8091CF01BE
:108EC0008823E4F380E090E0442319F0F601249134
:108ED00002C0F6012081F701E80FF91FE4912E137B
:108EE0000AC00196FFEFCF1ADF0A8F3F910561F3A9
:108EF00058F380E001C081E0DF91CF911F91FF9096
:108F0000EF90DF90CF9008959C018091CF0188234E
:108F1000E4F34FB7F8949091CF019923E4F3ECEC8C
:108F2000F1E0908198609083F901F05F808186176D
:108F300001F1E0ECF1E09485977F948786E38287E6
:108F400088ED84BF81E08093CB019091CF0199237C
:108F5000E4F3E0ECF1E083E3828720833183128243
:108F6000648385E3828788ED84BF81E08093CB01B1
:108F700012864FBF8091CF018823E4F30895082F14
:108F8000F894811113C0E12CF12CC0E0D0E710E07F
:108F900041E0B701CE010E94FF47182BD395F3940F
:108FA000C1158EE8D807A0F3111105C061E00111C9
:108FB00060E0619501C06EEF80E093E00E94FD47A4
:0C8FC00088ED84BF81E080937900FFCF32
:088FF800FFCF86CFC0CF00CFF0
:00000001FF
